:100000000C943D000C945A000C945A000C945A0025
:100010000C945A000C945A000C94BC010C945A0095
:100020000C945A000C945A000C945A000C943A0AFE
:100030000C945A000C945A000C9474020C945A00BC
:100040000C945A000C945A000C94BC100C94E411BB
:100050000C945A000C945A000C9446030C945A00C9
:100060000C945A000C945A000301030103010C0183
:100070000C011E011E012701150111241FBECFEF27
:10008000D8E0DEBFCDBF13E0A0E0B1E0EAEEF7E2DA
:1000900002C005900D92A43BB107D9F725E0A4EB6F
:1000A000B3E001C01D92A93AB207E1F70E94C7125E
:1000B0000C94DF130C9400000C94E9018617970749
:1000C00074F486E08093960485E090E00E94EA0153
:1000D00085E00E94AA0588EC91E00C94E60386E096
:1000E00090E00E94EA0186E00C94AA058417950727
:1000F0006CF087E08093960485E090E00E94EA012E
:1001000085E00E94AA058AEC91E008C0861797074F
:100110003CF482E08093960485EF91E00C94E60332
:1001200086E090E00E94EA0186E00C94AA0586171A
:1001300097074CF085E08093960486E090E00E945B
:10014000EA0186E00BC0481759076CF083E0809302
:10015000960488E090E00E94EA0188E00E94AA05E7
:1001600088EC91E002C085EF91E00C94E6036817FB
:10017000790774F484E08093960488E090E00E940C
:10018000EA0188E00E94AA0588EC91E00C94E6035D
:1001900087E090E00E94EA0187E00C94AA054817E6
:1001A00059076CF088E08093960487E090E00E9405
:1001B000EA0187E00E94AA058AEC91E008C0861750
:1001C00097073CF081E08093960485EF91E00C94D2
:1001D000E60388E090E00C94EA01CF92DF92EF9280
:1001E000FF920F931F93DB01BA01A901E0919604DE
:1001F000CE2ED12C29E0C216D10490F5F601EC5C8C
:10020000FF4F0C94BF13A8011F910F91FF90EF9027
:10021000DF90CF900C949700B8011F910F91FF9041
:10022000EF90DF90CF900C94CF00BA011F910F9107
:10023000FF90EF90DF90CF900C94B700AD011F912D
:100240000F91FF90EF90DF90CF900C947600BD015E
:100250001F910F91FF90EF90DF90CF900C945E0074
:100260001F910F91FF90EF90DF90CF900895109223
:100270009604089520919D0430919E042817390713
:100280007CF48F3F23E092075CF490939C0480936E
:100290009B040E94FC010E94480280E090E00895C7
:1002A00081E090E008952091A1043091A2042817E4
:1002B000390794F420919B0430919C048217930792
:1002C0005CF490939E0480939D040E94FC010E9424
:1002D000480280E090E0089581E090E00895209148
:1002E000A1043091A204821793075CF49093A004B8
:1002F00080939F040E94FC010E94480280E090E0ED
:10030000089581E090E0089520919F043091A00429
:100310002817390794F420919D0430919E04821788
:1003200093075CF49093A2048093A1040E94FC01C3
:100330000E94480280E090E0089581E090E00895F6
:10034000E0E6F0E080818360808380818860808344
:100350000895089581E00E94AA050E9478050E94F0
:10036000600280916000877F8093600080916000D0
:10037000806480936000FFCF1F920F920FB60F92A0
:1003800011242F933F934F935F936F937F938F939A
:100390009F93AF93BF93EF93FF9382E00E94AA05D0
:1003A000E0E6F0E08081877F8083808180648083C5
:1003B000FF91EF91BF91AF919F918F917F916F913D
:1003C0005F914F913F912F910F900FBE0F901F9013
:1003D00018950895CF93DF93EC018CEC91E00E9487
:1003E0008D0ABE0180E090E00E94BB0A81EF91E09F
:1003F000DF91CF910C948D0A81E08093B40308952E
:1004000080919704813461F480919804833541F49C
:1004100081E090E020919904253521F080E002C030
:1004200080E090E0E7E9F4E020E03191230F34E050
:10043000EA3AF307D1F7222311F080E090E0089523
:1004400062E170E082E091E00E94570F42E162E0D9
:1004500071E080E490E00C948C030E94D503892B1A
:10046000E1F742E167E974E080E490E00E94C003B4
:100470000E940002892B49F40E94200242E167E9B0
:1004800074E080E490E00E94C0031092B4030895E9
:100490000E94D503892B99F48091B403882379F0C5
:1004A00062E170E087E994E00E94570F42E167E95A
:1004B00074E080E490E00E948C031092B4030895ED
:1004C0008091B403882379F062E170E087E994E0D9
:1004D0000E94570F42E167E974E080E490E00E94D7
:1004E000A9031092B40308951F920F920FB60F92B2
:1004F00011242F933F938F939F93AF93BF9320919A
:10050000BF033091C0038091B7039091B8032817BF
:10051000390749F08091BF039091C00301969093F1
:10052000C0038093BF032091C1033091C203809127
:10053000B9039091BA032817390749F08091C10394
:100540009091C20301969093C2038093C10380915E
:10055000BB039091BC03A091BD03B091BE03019673
:10056000A11DB11D8093BB039093BC03A093BD0359
:10057000B093BE03BF91AF919F918F913F912F9107
:100580000F900FBE0F901F90189589EF87BD82E0E6
:1005900084BD93E095BD789480936E001092BB0368
:1005A0001092BC031092BD031092BE0308958230D6
:1005B000910550F4F894880F991FFC01E154FC4F09
:1005C000808191817894089580E090E00895823050
:1005D000910598F4880F991FFC01E154FC4F20818C
:1005E0003181FC01E954FC4F81E090E04081518170
:1005F0004217530721F080E0089580E090E00895CD
:100600000F931F93CF93DF93EC018B018091B50380
:100610009091B603892B41F40E94C50281E090E0DD
:100620009093B6038093B503C230D10570F48FB7B1
:10063000F894CC0FDD1FFE01E954FC4F11830083B9
:10064000C154DC4F198218828FBFDF91CF911F9167
:100650000F9108958091B5039091B603892B41F4D1
:100660000E94C50281E090E09093B6038093B503A9
:10067000F8946091BB037091BC038091BD0390918D
:10068000BE0378940895FA9AF99A08951F920F92EA
:100690000FB60F9211242F933F934F935F936F9355
:1006A0007F938F939F93AF93BF93EF93FF93E091CB
:1006B000ED048091AC04E81720F0FB981092A90497
:1006C0001AC08091AA049091AB0492BD81BD81E0D3
:1006D0008E0F8093ED04F0E0E355FB4F808180BDE9
:1006E0008091AA049091AB0401969093AB048093FF
:1006F000AA040E944303FF91EF91BF91AF919F9194
:100700008F917F916F915F914F913F912F910F90BA
:100710000FBE0F901F9018952091A9042111FCCFB6
:100720009093AB048093AA0481E08093A904109273
:10073000ED044093AC04962FADEAB4E0FB018E2F9C
:10074000891B841718F481918D93F9CF7894FB9AC3
:100750000895FB01861B970B50E0DC01AE0FBF1F15
:100760009F01261B370B2417350748F4F999FECF54
:10077000B2BDA1BD219120BDFA9AF99AEECF08959C
:100780002091A9042111FCCFFB01861B970B2E2F72
:10079000261B241748F49C012E0F3F1F32BD21BD9C
:1007A000F89A20B52193F3CF08958091A90490E0A1
:1007B000089560E070E080E090E00E940003219ADC
:1007C00029980895299A0895299808959093C40323
:1007D0008093C3031092C7031092C6031092C503FF
:1007E00060E070E080E090E00E9400030C94E4037D
:1007F0008091C3039091C403892B09F452C080E017
:1008000090E00E94E702892B09F44BC08091C50358
:10081000811134C02091C6033091C703E091C30316
:10082000F091C403E20FF31F80818032E9F03CF4C1
:1008300081111DC01092C7031092C60308958D3216
:1008400039F08E32A1F40E94E2036AEF70E004C036
:100850000E94E2036EEE72E080E090E00E940003EE
:1008600081E08093C503089568EE73E00BC02F5FAD
:100870003F4F3093C7032093C60308950E94E403BB
:1008800064E670E080E090E00E9400031092C503EF
:100890008091C6039091C70301969093C7038093FC
:1008A000C603089585B18695817090E008958031E2
:1008B000910504F527E0289FA001299F500D1124E0
:1008C000FA01E553FC4F80818132A0F480E090E092
:1008D00020E0FA01E80FF91FE553FC4F3081230FA8
:1008E000019687309105A9F781E090E0222321F05D
:1008F00080E0089580E090E008956F927F928F925B
:100900009F92AF92BF92CF92DF92EF92FF920F939E
:100910001F93CF93DF930E94D503892BE1F70BE35D
:1009200014E0C0E8D0E0BE01655B7C4F47E0CE013B
:100930000E94C003F80111928F012796C03FD10594
:1009400091F74BECE42E43E0F42E8701C0E0D0E0B9
:10095000D12CB12C77247A94CE010E945704892B94
:1009600041F0F8018081871520F4BC2E782EDD241B
:10097000D3942196095F1F4FC031D10569F7DD205F
:1009800009F46AC0B092CA037092C903CB2DD0E0BB
:100990008E010F5F1F4F872C2FE0A22E37E0932E82
:1009A0006801FFE0CF22DD24C6010E945704892B95
:1009B00061F4B092C8038E0101501109609780E183
:1009C000A82EB12C97E0692E3AC09C9CF0019D9C0A
:1009D000F00D1124E553FC4F4081242F30E0882D89
:1009E00090E001968F7199272817390711F7C09267
:1009F000CA034093C903AA940F5F1F4FAA20C9F2EC
:100A0000842ECECFF701208130E0872D90E04F96E5
:100A10008F7199272817390731F5C092C803689C50
:100A2000F001699CF00D1124E553FC4F70800150DA
:100A30001109F7E0EF0EF11C0C171D07A1F0C8011A
:100A4000B5010E946A136C014C019924C4010E94F3
:100A50005704892BB9F607C08FE08093CA03109220
:100A6000C9031092C803DF91CF911F910F91FF909E
:100A7000EF90DF90CF90BF90AF909F908F907F903E
:100A80006F900895EF92FF921F93CF93DF930E9490
:100A9000D503892B39F5EBE3F4E0C0E0D0E0819198
:100AA0008823E1F017E01C9FC0011D9F900D1124C9
:100AB0009C0125533C4F790167E070E0C9010E9419
:100AC000570FC19FC001112447E0B70180589F4FC5
:100AD0000E948C03C55CDB4F188204C02196C03194
:100AE000D105E9F6DF91CF911F91FF90EF90089526
:100AF000EF92FF921F93CF93DF93EBE3F4E0C0E01C
:100B0000D0E081918823E1F017E01C9FC0011D9F78
:100B1000900D11249C0125533C4F790167E070E052
:100B2000C9010E94570FC19FC001112447E0B701BE
:100B300080589F4F0E94A903C55CDB4F188204C0F8
:100B40002196C031D105E9F6DF91CF911F91FF9039
:100B5000EF900895EF92FF920F931F93CF93DF933F
:100B6000E82EC091CA03D0E02196CF70DD27809196
:100B7000C80390E00E945704F82E8091C9038F5F4C
:100B8000813218F48093C90302C01092C90387E030
:100B90008C9F80018D9F100D112405531C4F809157
:100BA000C903F80180830E947706F801618372838C
:100BB00083839483E582C093CA0367E070E0C80131
:100BC0000E94570FC55CDB4F81E088838091CA0388
:100BD0009091C803891308C0FF2031F090E001967E
:100BE0008F7099278093C803DF91CF911F910F9148
:100BF000FF90EF900895EBECF3E0ABE3B4E08FEF00
:100C00004FEF5FEFBA0191E0808385834183528388
:100C1000638374839D93379624E0EB33F207A1F747
:100C20008FE08093CA031092C8031092C9030895FD
:100C30000F931F93CF93DF930091C803C02F10E051
:100C4000D0E0CE010E945704892B29F02196CF7065
:100C50001F5F0C13F5CF812FDF91CF911F910F9163
:100C60000895AF92BF92CF92DF92EF92FF920F93CF
:100C70001F93CF93DF936B017C018A0159010E947E
:100C8000180690E0A0E0B0E0C816D906EA06FB0618
:100C9000F8F48091C80390E0C80ED91E8FE0C822F6
:100CA000DD2487E08C9DF0018D9DF00D1124E5532E
:100CB000FC4F81819281A381B481E801888399836B
:100CC000AA83BB838581F501808381E090E002C027
:100CD00080E090E0DF91CF911F910F91FF90EF9016
:100CE000DF90CF90BF90AF9008950C945F0A0C9462
:100CF0006F0A6093EE047093EF048093F004909376
:100D0000F1040C947B0A9C0160E971E00E94561387
:100D1000892B79F0C90183709927892B61F4C90166
:100D200064E670E00E9456139C0181E0232B21F4BD
:100D300002C081E0089580E008952F923F924F9283
:100D40005F926F927F928F929F92AF92BF92CF925B
:100D5000DF92EF92FF920F931F93CF93DF93CDB764
:100D6000DEB767970FB6F894DEBF0FBECDBF2CE09D
:100D7000E0E3F1E0AE014F5F5F4F1A01DA0101904D
:100D80000D922A95E1F7DC012C91220F2056322F8B
:100D9000330F330F230F11963C9111973153230FCB
:100DA0002D8713962C911397022E000C330B205392
:100DB00031096AE0629FA001639F500D11241496CF
:100DC000CC900C2C000CDD08B0E3CB1AD108C40E7B
:100DD000D51E860101501109FC012681022E000C4E
:100DE000330B20533109E8EEF3E02E9FA0012F9F33
:100DF000500D3E9F500D1124DC0117962C91179732
:100E0000022E000C330B2053310974E6729F7001DF
:100E1000739FF00C1124E40EF51E18964C91189750
:100E2000042E000C550B40535109649F9001659F9F
:100E3000300D1124E20EF31E19962C911997F7012B
:100E4000E20FF11D27FDFA95AF0158507A011B966C
:100E50002C911B97220F2056322F330F330F230F65
:100E60001C963C911C973053230F298B1E962C9176
:100E70001E97220F2056322F330F330F230F1F964A
:100E80003C911F973053230F2A8B51962C915197E9
:100E9000220F2056322F330F330F230F52968C918F
:100EA0008053280F2B8BCA010E948306882321F0D0
:100EB0005D85523008F08601C70160E971E00E944B
:100EC0005613FC01DB0120E839E540E650EF0E94B3
:100ED000D4132B013C01CF0164E670E00E9456134D
:100EE000FC01DB0120E032EC47E15CEB0E94D41313
:100EF0004B015C01DF01B695A795B695A79520E853
:100F00003FE146E857E00E94D4136B017C01DF010A
:100F1000A370BB2720E833E341EE51E00E94D413D5
:100F20006C8B7D8B8E8B9F8BF1018E2F82199D8513
:100F3000891720F48191080F111DF7CFA9892A2F55
:100F400030E0A0E1BEE00E94C5136D877E878F87E9
:100F5000988BBA892B2F30E0ACE3B0E00E94C51328
:100F60002D853E854F855889260F371F481F591FED
:100F7000DA01C9013B89830F911DA11DB11D480EE6
:100F8000591E6A1E7B1E840C951CA61CB71CC80C1F
:100F9000D91CEA1CFB1C8C899D89AE89BF89C80EAF
:100FA000D91EEA1EFB1ED80120E831E541E050E0E1
:100FB0000E94D413DC01CB018C0D9D1DAE1DBF1D05
:100FC0008093EE049093EF04A093F004B093F104A7
:100FD00067960FB6F894DEBF0FBECDBFDF91CF91FD
:100FE0001F910F91FF90EF90DF90CF90BF90AF9047
:100FF0009F908F907F906F905F904F903F902F9039
:101000000C947B0AEF92FF920F931F93CF93DF9381
:10101000CDB7DEB768970FB6F894DEBF0FBECDBF71
:101020007B012CE0E0E3F1E0DE011D9601900D92E2
:101030002A95E1F78E010F5F1F4F2CE0F801119206
:101040002A95E9F70E9483068A83DE011D9680E0D7
:10105000F701408151819D91F80121918F0130E08C
:10106000290F311D4217530740F0421B530BF70164
:10107000518340838F5F8C3059F768960FB6F89490
:10108000DEBF0FBECDBFDF91CF911F910F91FF90BB
:10109000EF9008954F925F926F927F928F929F92FE
:1010A000AF92BF92CF92DF92EF92FF92CF93DF93F6
:1010B00000D0CDB7DEB72B013C0181E090E0A0E08D
:1010C000B0E020E8421629E5520620E6620620EF4D
:1010D000720618F480E090E0DC0120E931E0829FA4
:1010E0005001839FB00C929FB00C112480E3A81A8A
:1010F00088EFB80AC12CD12C7601C39420E842169F
:1011000029E5520620E6620620EF720618F4C12C8B
:10111000D12C7601A701960160E879E580E690EF91
:101120000E94461373016201C61AD70AE80AF90A37
:1011300081E090E0A0E0B0E0C11422ECD20627E10B
:10114000E2062CEBF20618F480E090E0DC0144E6C5
:10115000489F9001499F300D1124A20EB31E21E03B
:1011600030E040E050E0C11482ECD80687E1E806A8
:101170008CEBF80618F420E030E0A90160E072EC96
:1011800087E19CEB0E944613A7019601261B370BB3
:10119000480B590BCA01B90120E83FE146E857E086
:1011A0000E947E13220F331F220F331FA20EB31E85
:1011B00020E833E341EE51E00E947E137501E20E18
:1011C000F31E20E831E541E050E00E947E134B0120
:1011D0005C013A832983BE016F5F7F4FC7010E9484
:1011E0000208D82EC501B40120E13EE040E050E005
:1011F0000E947E1329013A014B015C0166ED71E00A
:1012000084E191E00E948E096D2D70E06F5F7F4F49
:1012100042E084E191E00E94A10969817A816F5FD7
:101220007F4F42E087E191E00E94A10944E0B701CD
:101230008AE191E00E94A10942E0B2018FE191E0D0
:101240000E94A109C501B4012CE330E040E050E068
:101250000E947E1349015A016B017C0142E0B401F6
:1012600082E291E00E94A10942E0B60185E291E0AC
:101270000E94A10984E191E00F900F90DF91CF913E
:10128000FF90EF90DF90CF90BF90AF909F908F90A6
:101290007F906F905F904F9008950F931F930E94DF
:1012A0006F0A0091EE041091EF042091F004309148
:1012B000F104600F711F821F931F1F910F910C94F7
:1012C0004A08FB01480F591F8417950729F02191FF
:1012D000DC012D93CD01F8CF0895480F591F8417D5
:1012E000950721F0FC016193CF01F9CF0895FB012F
:1012F000480F591F8417950759F0DC013D91CD0126
:101300002191321740F02317A8F781E090E008956B
:1013100080E090E008958FEF9FEF0895FC01DB01DE
:101320008D91BD01882311F08193F9CF108208952A
:10133000FC019F01281B390B41914111FACFC901D2
:1013400008959F92AF92BF92CF92DF92EF92FF9259
:101350000F931F93CF93DF9300D000D01F92CDB790
:10136000DEB7FC016B019E012F5F3F4F8E010A5FCC
:101370001F4FEE24E394F12C9AE0992E9E9C50018D
:101380009F9CB00C1124C601B5010E945613B701F1
:101390000E945613D9016D939D01C61AD10867FDAD
:1013A000D3947501A017B10749F760E070E084E0BD
:1013B00090E050E0D8012E918D01211105C06115FA
:1013C000710511F4009741F4841795072CF4205D02
:1013D000219361E070E004C0841795070CF4319606
:1013E000019740F70F900F900F900F900F90DF91A3
:1013F000CF911F910F91FF90EF90DF90CF90BF9012
:10140000AF909F90089588EC80937C0086E880934D
:101410007A00089580917A008295869586958370EA
:1014200091E08927817090E00895EAE7F0E08081FB
:10143000806480830895809178002091790030E065
:10144000322F2227A901330F660B770B9A01AB01CC
:10145000282BA5E6B0E00E94D41324E630E040E05B
:1014600050E00E94A013DA01C90181519140A10905
:10147000B10908951F920F920FB60F9211248F9306
:101480009F93AF93BF9380914B0490914C04A09194
:101490004D04B0914E040196A11DB11D80934B04E3
:1014A00090934C04A0934D04B0934E04BF91AF9120
:1014B0009F918F910F900FBE0F901F90189583E210
:1014C00094EF9093890080938800109280008CE0C4
:1014D00080938100789482E080936F0008952FB705
:1014E000F89460914B0470914C0480914D0490915C
:1014F0004E042FBF08958FB7F89410924B041092AA
:101500004C0410924D0410924E048FBF08950E9417
:10151000A910789408950C946D12CF93DF93EC0189
:101520008991882319F00E946D12FACFDF91CF9133
:101530000895CF93C82F90E024E0959587952A953C
:10154000E1F78A3010F4805D01C0895C0E946D1261
:101550008C2F8F708A3010F0895C01C0805DCF9134
:101560000C946D12CF93C82F892F0E94990A8C2F4B
:10157000CF910C94990A2F923F924F925F926F9263
:101580007F928F929F92AF92BF92CF92DF92EF9213
:10159000FF920F931F93CF93DF93CDB7DEB763977F
:1015A0000FB6F894DEBF0FBECDBF6B017C0197FF75
:1015B0000DC0F094E094D094C094C11CD11CE11CE7
:1015C000F11C81E090E09B8B8A8B02C01B8A1A8AF7
:1015D000FE0131965F018E01055F1F4FF98BE88B8D
:1015E00066246394712C812C912CAAE0B0E09301C5
:1015F000A4010E94D4131B012C01C701B601910163
:10160000A2010E94A0139301A4010E94A013E889E3
:10161000F9892193F98BE88B822F220F990BAA0B62
:10162000BB0BC81AD90AEA0AFB0A310142010E179C
:101630001F07D9F68A899B89892B19F08DE20E94B0
:101640006D1220E030E0F80182918F01811106C017
:101650002115310519F4EA15FB0529F4805D0E9476
:101660006D1221E030E00A151B0569F763960FB68D
:10167000F894DEBF0FBECDBFDF91CF911F910F91C8
:10168000FF90EF90DF90CF90BF90AF909F908F90A2
:101690007F906F905F904F903F902F9008950C94A3
:1016A00043120C946A12FF920F931F93CF93DF9310
:1016B000EC01062FF72E18820E94431210E08823B7
:1016C000D9F00E9417128823B9F00E941E128032AE
:1016D00010F089931F5FE02FFF2D482F50E02191DC
:1016E000222339F0022E000C330B42175307B9F7AF
:1016F00002C08D3051F71882812FDF91CF911F9159
:101700000F91FF9008950F931F93CF93DF938C0158
:10171000EC01699170E080E090E00E94BB0A0C5FF0
:101720001F4F8EE20E946D12699170E080E090E0A0
:101730000E94BB0AC017D107A1F781EF91E0DF91AA
:10174000CF911F910F910C948D0ACF93DF93EC01F1
:1017500082E20E948B0ACE010E948D0A82E2DF9112
:10176000CF910C948B0A8AEE91E00C948D0ADC01E7
:1017700080914F048D3229F48FEF9FEFE0E5F4E084
:1017800004C081E090E0EFE4F4E011961C921E9218
:101790006AE040812D913C9111974423C1F0629FF2
:1017A000A001639F500D112411965C934E932191DB
:1017B00030ED320F3A30B8F4022E000C330B2053C8
:1017C0003109240F351F11963C932E93E2CF289FA9
:1017D000A001299F500D389F500D11244D935C930B
:1017E00081E090E0089580E090E008950C948B0AE9
:1017F0000C948D0A0C94990A0C94B20A0C94BB0AAE
:101800000C9443120C946A12FF920F931F93CF9380
:10181000DF93EC01062FF72E18820E94431210E08E
:101820008823D9F00E9417128823B9F00E941E1253
:10183000803210F089931F5FE02FFF2D482F50E07A
:101840002191222339F0022E000C330B421753074B
:10185000B9F702C08D3051F71882812FDF91CF91F7
:101860001F910F91FF90089564EF71E08FE494E071
:101870000E94040C882349F0E82FF0E0E25BFB4F64
:1018800080818F3289F3803279F308950F931F930B
:10189000CF93DF9300D000D01F92CDB7DEB764EFB7
:1018A00071E08FE494E00E94040C67EF71E08FE434
:1018B00094E00E943C0F892B09F0BBC164EF71E0FA
:1018C0008FE494E00E94040C62E773E08FE494E0FC
:1018D0000E943C0F892B09F081C264EF71E08FE414
:1018E00094E00E94040C6CEF71E08FE494E00E949D
:1018F0003C0F892B09F072C28FE093E00E948D0AA1
:1019000081EF91E00E948D0A83E092E00E948D0AAF
:1019100081EF91E00E948D0A8DE092E00E948D0A95
:1019200086EF94E00E94A50B8CE20E948B0A81EF67
:1019300091E00E948D0A8AE192E00E948D0A82E085
:1019400095E00E94A50B8CE20E948B0A81EF91E04A
:101950000E948D0A8EE292E00E948D0A8EE095E050
:101960000E94A50B8CE20E948B0A81EF91E00E94FD
:101970008D0A83E492E00E948D0A60911A057091AD
:101980001B0580911C0590911D050E944A088C0141
:10199000FC01128682E20E948B0AC8010E948D0A15
:1019A00082E20E948B0A8CE20E948B0A81EF91E016
:1019B0000E948D0A8BE592E00E948D0A80911E059F
:1019C0000E94990A0FE115E08AE30E948B0AF80150
:1019D00081918F010E94990AF5E004321F07A1F757
:1019E0008FE692E00E948D0A81EF91E00E948D0ABD
:1019F00082E792E00E948D0A84E295E00E94A50BA6
:101A000081EF91E00E948D0A82E393E00E948D0AAB
:101A100081EF91E00E948D0A86E892E00E948D0A93
:101A200060919B0470919C04072E000C880B990B0D
:101A30000E94BB0A8CE20E948B0A81EF91E00E9417
:101A40008D0A84E992E00E948D0A60919D04709154
:101A50009E04072E000C880B990B0E94BB0A8CE297
:101A60000E948B0A81EF91E00E948D0A82EA92E047
:101A70000E948D0A60919F047091A004072E000CB3
:101A8000880B990B0E94BB0A8CE20E948B0A81EFA3
:101A900091E00E948D0A80EB92E00E948D0A609195
:101AA000A1047091A204072E000C880B990B0E94D0
:101AB000BB0A8CE20E948B0A81EF91E00E948D0AA2
:101AC0008EEB92E00E948D0A6091000170910101FD
:101AD000072E000C880B990B0E94BB0A8CE20E9417
:101AE0008B0A81EF91E00E948D0A8FEC92E00E94B8
:101AF0008D0A809100019091010120919B04309109
:101B00009C04821793071CF08AED92E020C020917C
:101B10009D0430919E04821793071CF082EE92E0A0
:101B200016C02091A1043091A204281739071CF493
:101B30008AEE92E00CC020919F043091A0042817F7
:101B400039071CF481EF92E002C089EF92E00E9415
:101B50008D0A8CE20E948B0A81EF91E00E948D0A2F
:101B600081E093E00E948D0A81EF91E00E948D0A4E
:101B700010E00E941806181708F048C0812F90E066
:101B8000A0E0B0E09E012B5F3F4FAE014F5F5F4F83
:101B9000BC01CD010E943106112339F08CE20E9474
:101BA0008B0A81EF91E00E948D0A8BE093E00E9406
:101BB0008D0A81EF91E00E948D0A81E193E00E94FD
:101BC0008D0A82E20E948B0A69817A818B819C81D5
:101BD0000E944A080E948D0A82E20E948B0A8CE2CF
:101BE0000E948B0A84E293E00E948D0A6D8170E06E
:101BF00080E090E00E94BB0A81EF91E00E948D0A94
:101C000080E393E00E948D0A1F5FB3CF81EF91E0E4
:101C10000E948D0A86E393E00E948D0A81EF91E095
:101C20000E948D0A84E393E00E948D0A81EF91E087
:101C300017C16AE373E08FE494E00E943C0F892BA4
:101C400009F0D8C064EF71E08FE494E00E94040CC6
:101C500062E773E08FE494E00E943C0F892B09F067
:101C6000BDC06FE373E08FE494E00E94040C63E472
:101C700073E08FE494E00E943C0F892B89F56BE4BC
:101C800073E08FE494E00E94040C6FE473E08FE44F
:101C900094E00E943C0F892B09F0A0C064EF71E032
:101CA0008FE494E00E94040C66E573E08FE494E016
:101CB0000E943C0F892B29F48EE593E00E948D0A47
:101CC0008FC065E673E08FE494E00E943C0F892B9F
:101CD00009F084C08EE593E00E948D0A0E94AA015B
:101CE0006CE673E08FE494E00E943C0F892B09F0CE
:101CF00075C06FE373E08FE494E00E94040C64E726
:101D000073E08FE494E00E943C0F892B09F066C0D9
:101D10006CE773E08FE494E00E94040C6FE773E0DB
:101D20008FE494E00E943C0F892B91F464EF71E002
:101D30008FE494E00E94040CCE0101960E94B70B40
:101D4000892B09F44BC089819A810E943A014FC0C6
:101D500069E873E08FE494E00E943C0F892B89F4DA
:101D600064EF71E08FE494E00E94040CCE010196D0
:101D70000E94B70B892B91F189819A810E945301AE
:101D800036C063E973E08FE494E00E943C0F892B36
:101D900089F464EF71E08FE494E00E94040CCE01BA
:101DA00001960E94B70B892BC9F089819A810E9404
:101DB0006F011DC06DE973E08FE494E00E943C0F59
:101DC000892B61F464EF71E08FE494E00E94040CCD
:101DD000CE0101960E94B70B892B29F40E94B30B08
:101DE0000E94340C3FC089819A810E948401892B12
:101DF000A9F1F4CF67EA73E08FE494E00E943C0F0E
:101E0000892B61F764EF71E08FE494E00E94040C89
:101E100062E773E08FE494E00E943C0F892BF1F6B7
:101E200064EF71E08FE494E00E94040C6CE673E0D0
:101E30008FE494E00E943C0F892B81F664EF71E0FF
:101E40008FE494E00E94040C6FEA73E08FE494E066
:101E50000E943C0F892B11F60E94FB058EE593E052
:101E60000E948D0A0F900F900F900F900F90DF91AE
:101E7000CF911F910F910895DC01FB019D91992352
:101E800041F08191891784F09817C4F78FEF9FEF85
:101E9000089581E090E02081211102C080E090E06F
:101EA000919581959109089581E090E00895DC0174
:101EB00090E020E061507109422F50E0FD01E40FF5
:101EC000F51F4617570720F48081980F2F5FF4CF36
:101ED000919590830895611571058105910541F0F3
:101EE00060932C0170932D0180932E0190932F010C
:101EF000211531054105510541F02093280130930A
:101F0000290140932A0150932B0108954F925F922B
:101F10006F927F928F929F92AF92BF92CF92DF92F9
:101F2000EF92FF92CF93DF9300D000D0CDB7DEB712
:101F30002B013C0129833A834B835C83C0902801A9
:101F4000D0902901E0902A01F0902B01A701960181
:101F500044275527A9E6B0E90E94D4136701EE246F
:101F6000FF244B015C018C0C9D1CAE1CBF1C80929D
:101F7000280190922901A0922A01B0922B01C090D1
:101F80002C01D0902D01E0902E01F0902F01A7019F
:101F9000960144275527A0E5B6E40E94D4136701B3
:101FA000EE24FF24C60ED71EE81EF91EC0922C0197
:101FB000D0922D01E0922E01F0922F01D4019927A9
:101FC0008827BC01CD016C0D7D1D8E1D9F1D2981B3
:101FD0003A814B815C8124193509460957090E94D1
:101FE0007E13CB01840D951D0F900F900F900F90D5
:101FF000DF91CF91FF90EF90DF90CF90BF90AF90A7
:102000009F908F907F906F905F904F900895CF93A7
:10201000DB01FC0120812D3221F401966FEF7FEF6F
:1020200002C061E070E011961C921E92FC01CAE0B1
:1020300020818D919C9111972223C1F0C89FA0010E
:10204000C99F500D112411965C934E93219180ED00
:10205000820F8A30B8F4022E000C330B2053310962
:10206000240F351F11963C932E93E2CF869F90014B
:10207000879F300D969F300D11242D933C9381E066
:1020800090E002C080E090E0CF9108958091F2044A
:10209000833561F48091F304853441F481E090E06C
:1020A0002091F404223521F080E002C080E090E02D
:1020B000E2EFF4E020E03191230F35E0EA32F3075C
:1020C000D1F7222311F080E090E00895CF93DF93C1
:1020D000CDB7DEB7E7970FB6F894DEBF0FBECDBF22
:1020E00087E3ECE3F1E0DE01119601900D928A9511
:1020F000E1F767E370E0CE0101960E94570F47E3D6
:10210000BE016F5F7F4F80E090E00E948C03E796F6
:102110000FB6F894DEBF0FBECDBFDF91CF9108950B
:102120000E94D503892BE1F747E362EF74E080E07A
:1021300090E00E94C0030E944610892B49F40E943F
:10214000661047E362EF74E080E090E00C94C00317
:1021500008951092C00087E690E09093C5008093A8
:10216000C400E1ECF0E088E1808386E08093C20067
:102170008081806A808308951F920F920FB60F921C
:1021800011242F933F938F939F93EF93FF9380910D
:102190009504882309F4F0C08091C60090919404BE
:1021A000992309F4E3C090EE980F9F3518F08D3015
:1021B00009F059C0209191049091920430E0291BBC
:1021C0003109215031092F733327232B61F0E0911E
:1021D0009204F0E0E75DFA4F8083909192049F5F54
:1021E0009F739093920420918F049091900430E01B
:1021F000291B3109215031092F733327232B89F0F3
:10220000E0919004F0E0E759FA4F808390919004B8
:102210009F5F9F73909390049091C1009062909300
:10222000C1008D3009F0C5C080918F0420919004C9
:1022300090E0821B910901978F739927892B69F090
:10224000E0919004F0E0E759FA4F8AE080838091B2
:1022500090048F5F8F7380939004809193048F5FBD
:1022600080939304A6C0883011F08F37C1F5809118
:1022700092042091910490E0821B91098F73992719
:10228000892B09F496C0E0919204F0E0E75DFA4FE3
:1022900080818091920481508F7380939204809109
:1022A0008F042091900490E0821B910901978F7315
:1022B0009927892B09F47DC0E0919004F0E0E7595B
:1022C000FA4F8FE78083809190048F5F8F738093A4
:1022D00090048091C10080628093C1006AC0843004
:1022E00009F067C0809192042091910490E0821BD4
:1022F00091098F739927892B31F1E0919204F0E0D5
:10230000E75DFA4F80818D30F1F08091910420914A
:10231000920490E0821B910901978F739927892B72
:1023200091F0E0919204F0E0E75DFA4F8DE0808358
:10233000809192048F5F8F738093920480919304B5
:102340008F5F80939304809191042091920490E098
:10235000821B910901978F739927892B51F1E09185
:102360009204F0E0E75DFA4F84E019C0833009F58C
:1023700081E0809394041DC0809191042091920487
:1023800090E0821B910901978F739927892B79F02F
:10239000E0919204F0E08091C600E75DFA4F8083FF
:1023A000809192048F5F8F738093920402C080911A
:1023B000C600FF91EF919F918F913F912F910F90C8
:1023C0000FBE0F901F9018951F920F920FB60F928D
:1023D00011242F938F939F93EF93FF9380919004F9
:1023E00020918F0490E0821B91098F739927892B8C
:1023F00079F0E0918F04F0E0E759FA4F8081809303
:10240000C60080918F048F5F8F7380938F0405C007
:102410008091C1008F7D8093C100FF91EF919F91CA
:102420008F912F910F900FBE0F901F901895809154
:10243000920490919104891B8F7308958091920466
:102440002091910490E0821B91098F739927892B29
:10245000C1F0E0919104F0E0E75DFA4F8081909146
:1024600091049F5F9F739093910490919504992399
:1024700049F08D3039F490919304915090939304E6
:10248000089580E0089581E08093950480919204FE
:102490002091910490E0821B91098F739927892BD9
:1024A000B1F0E0919104F0E0E75DFA4F8081843073
:1024B00071F410929404E0919104F0E0E75DFA4F1A
:1024C0008081809191048F5F8F73809391048091BC
:1024D000940408958091930408950FB607FE0EC0EA
:1024E00020918F049091900430E0291B31092150F4
:1024F00031092F733327232B99F30DC020918F04BB
:102500009091900430E0291B3109215031092F733B
:102510003327232B61F0E0919004F0E0E759FA4F64
:102520008083809190048F5F8F738093900480915B
:10253000C10080628093C10008951F93CF93DF9301
:10254000EC0180E011E0180FFE01E80FF11D808121
:10255000882321F00E946D12812FF4CFDF91CF915B
:102560001F9108951F93CF93DF93EC0180E011E05A
:10257000180FFE01E80FF11D8491882321F00E94BD
:102580006D12812FF4CFDF91CF911F9108950E949A
:102590002D020E9490100E9475060E947D040E94E8
:1025A000E9010E94870A0E94D9030E94030A0E943F
:1025B000A0010E945C0083E791E00E948D0A84E9FB
:1025C00091E00E948D0A81EF91E00E948D0A80E0E7
:1025D0000E94AA050E94150A68E873E181E090E074
:1025E0000E940003C0E00E94A9010E94F80381E05C
:1025F00090E00E94E702892B09F10E941B0A909348
:102600000101809300010091A1041091A204209186
:102610009F043091A00440919D0450919E046091CC
:102620009B0470919C040E94ED000E94150A68EEC4
:1026300073E081E090E00E940003D5CFC11109C092
:102640000E94000C882379F28DE991E00E948D0AA6
:102650001BC00E94020C882359F00E94460C0E9465
:10266000000C811111C086EB91E00E94F80BBACFEB
:102670000E94D503892B11F40E9442050E94D503C4
:10268000892B11F40E944802C1E0ADCFDB018F938A
:102690009F930E94D413BF91AF91A29F800D911D73
:1026A000A39F900DB29F900D11240895AA1BBB1BF0
:1026B00051E107C0AA1FBB1FA617B70710F0A61B42
:1026C000B70B881F991F5A95A9F780959095BC0163
:1026D000CD01089597FB072E16F4009407D077FDDF
:1026E00009D00E94561307FC05D03EF490958195C1
:1026F0009F4F0895709561957F4F0895A1E21A2E1E
:10270000AA1BBB1BFD010DC0AA1FBB1FEE1FFF1F95
:10271000A217B307E407F50720F0A21BB30BE40BE5
:10272000F50B661F771F881F991F1A9469F760952C
:102730007095809590959B01AC01BD01CF010895E6
:10274000052E97FB1EF400940E94B71357FD07D087
:102750000E947E1307FC03D04EF40C94B7135095DF
:102760004095309521953F4F4F4F5F4F089590957D
:102770008095709561957F4F8F4F9F4F0895EE0F15
:10278000FF1F0590F491E02D0994A29FB001B39F23
:10279000C001A39F700D811D1124911DB29F700D6A
:1027A000811D1124911D08950E94C513A59F900DB0
:1027B000B49F900DA49F800D911D11240895F8944D
:0227C000FFCF49
:1027C200030B443100802500002D00040B4430002F
:1027D200802500002D0002060024F400010C617423
:0827E2006D65676133323800B8
:1027EA00580041535500FF03FE030000010000C0DA
:1027FA00A801640030302F30302F30303030203094
:10280A00303A30303A303000E5559A15B53B121F50
:10281A001F1C1F1E1F1E1F1F1E1F1E1F5345520057
:10282A0053616E647900000000000000446F756710
:10283A006C617300000000005F554E4153534947D5
:10284A004E45440000000000444F5553414E555335
:10285A004100005345523438362050726F6A65631E
:10286A00742033202D20496E746567726174696F14
:10287A006E0D0A00594F55524E414D4500436F6E39
:10288A006E656374696F6E2045737461626C6973F7
:10289A006865640D0A00436F6E6E656374696F6ED6
:1028AA00204C6F73740D0A002D002E000D0A414C46
:1028BA0041524D3A200030302F30302F30303030F6
:1028CA002030303A30303A303000494E56414C4987
:1028DA00440D0A002F20004745542000646576699C
:1028EA00636500202022767064223A7B0020202033
:1028FA0020226D6F64656C223A0020202020226D10
:10290A00616E756661637475726572223A00202081
:10291A0020202273657269616C5F6E756D626572E3
:10292A00223A0020202020226D616E756661637450
:10293A007572655F64617465223A00202020202246
:10294A006D61635F61646472657373223A22002267
:10295A002C002020202022636F756E7472795F63C9
:10296A006F6465223A0020202274637269745F687A
:10297A0069223A00202022747761726E5F686922A8
:10298A003A0020202274637269745F6C6F223A00E5
:10299A00202022747761726E5F6C6F223A002020C9
:1029AA002274656D7065726174757265223A0020D1
:1029BA0020227374617465223A00435249545F4875
:1029CA0049005741524E5F4849004E4F524D414CC3
:1029DA00005741524E5F4C4F00435249545F4C4F8F
:1029EA00002020226C6F67223A5B00202020207B87
:1029FA00002020202020202274696D657374616D87
:102A0A0070223A00226576656E746E756D223A0000
:102A1A00202020207D0020205D0050555420002FCA
:102A2A00203F006465766963653F002F203D007290
:102A3A00657365743D002266616C736522004F4BB5
:102A4A0041590D0A0022747275652200646576691F
:102A5A0063652F00636F6E6669673F003D200074EF
:102A6A00637269745F68693D00747761726E5F684A
:102A7A00693D0074637269745F6C6F3D00747761BD
:102A8A00726E5F6C6F3D0044454C45544520006CA6
:042A9A006F67000062
:00000001FF
