:100000000C9434000C9451000C9451000C94510049
:100010000C9451000C9451000C9451000C9451001C
:100020000C9451000C9451000C9451000C9451000C
:100030000C9451000C9451000C9451000C945100FC
:100040000C9451000C9451000C947A020C94A2036D
:100050000C9451000C9451000C9451000C945100DC
:100060000C9451000C94510011241FBECFEFD8E026
:10007000DEBFCDBF11E0A0E0B1E0ECEEF9E002C0E0
:1000800005900D92A632B107D9F721E0A6E2B1E0C2
:1000900001C01D92AD3AB207E1F70E9453000C94E3
:1000A000E0040C940000CF93DF9300D000D0CDB7D4
:1000B000DEB70E9420010E94850080E091E00E944E
:1000C00026010E94C50000000E94B100892BE1F7C3
:1000D0000E94D600092E000CAA0BBB0B89839A83C1
:1000E000AB83BC8389819A81AB81BC81BC01CD018A
:1000F0000E9454018AE00E9424018DE00E942401A4
:1001000084E690E00E943E02DCCFCF93DF93CDB730
:10011000DEB78AE790E02AE730E0F9012081206825
:10012000FC0120838AE790E02AE730E0F901208192
:100130002660FC0120838CE790E02CE730E0F90199
:1001400020812860FC0120838CE790E02CE730E0E0
:10015000F9012081206CFC0120830000DF91CF9108
:100160000895CF93DF93CDB7DEB78AE790E0FC0127
:10017000808186FB880F880B80F9082E000C990B74
:1001800081709927DF91CF910895CF93DF93CDB7F9
:10019000DEB78AE790E02AE730E0F90120812064A9
:1001A000FC0120830000DF91CF910895CF93DF936E
:1001B00000D000D0CDB7DEB788E790E0FC018081A9
:1001C000082E000C990BAA0BBB0B89839A83AB8377
:1001D000BC8389E790E0FC018081082E000C990B1C
:1001E000982F8827092E000CAA0BBB0B29813A8176
:1001F0004B815C81822B932BA42BB52B89839A8313
:10020000AB83BC8329813A814B815C8185E690E098
:10021000DC010E94A404DC01CB0125E630E040E0D3
:1002200050E0BC01CD010E948504DA01C901815171
:1002300091400F900F900F900F90DF91CF91089504
:100240000E946702789408950C942B04CF93DF9357
:10025000EC018991882319F00E942B04FACFDF91D9
:10026000CF910895CF93C82F90E024E0959587957E
:100270002A95E1F78A3010F4805D01C0895C0E9404
:100280002B048C2F8F708A3010F0895C01C0805D48
:10029000CF910C942B04CF93C82F892F0E94320149
:1002A0008C2FCF910C9432012F923F924F925F92FC
:1002B0006F927F928F929F92AF92BF92CF92DF9276
:1002C000EF92FF920F931F93CF93DF93CDB7DEB7DB
:1002D00063970FB6F894DEBF0FBECDBF6B017C01F4
:1002E00097FF0DC0F094E094D094C094C11CD11C31
:1002F000E11CF11C81E090E09B8B8A8B02C01B8A81
:100300001A8AFE0131965F018E01055F1F4FF98B3E
:10031000E88B66246394712C812C912CAAE0B0E0C8
:100320009301A4010E94A4041B012C01C701B60182
:100330009101A2010E9485049301A4010E948504F9
:10034000E889F9892193F98BE88B822F220F990B89
:10035000AA0BBB0BC81AD90AEA0AFB0A31014201EF
:100360000E171F07D9F68A899B89892B19F08DE210
:100370000E942B0420E030E0F80182918F0181116E
:1003800006C02115310519F4EA15FB0529F4805D35
:100390000E942B0421E030E00A151B0569F76396E3
:1003A0000FB6F894DEBF0FBECDBFDF91CF911F9186
:1003B0000F91FF90EF90DF90CF90BF90AF909F9004
:1003C0008F907F906F905F904F903F902F90089507
:1003D0000C9401040C942804FF920F931F93CF9365
:1003E000DF93EC01062FF72E18820E94010410E023
:1003F0008823D9F00E94D5038823B9F00E94DC033A
:10040000803210F089931F5FE02FFF2D482F50E0BE
:100410002191222339F0022E000C330B421753078F
:10042000B9F702C08D3051F71882812FDF91CF913B
:100430001F910F91FF9008950F931F93CF93DF9318
:100440008C01EC01699170E080E090E00E94540121
:100450000C5F1F4F8EE20E942B04699170E080E0D8
:1004600090E00E945401C017D107A1F783E291E008
:10047000DF91CF911F910F910C942601CF93DF93C1
:1004800000D000D0CDB7DEB71C821B822B813C810F
:1004900028173907A8F41A82198229813A81283E3F
:1004A000334038F429813A812F5F3F4F3A832983C3
:1004B000F4CF2B813C812F5F3F4F3C832B83E6CFD2
:1004C0000F900F900F900F90DF91CF9108951092A1
:1004D000C00087E690E09093C5008093C400E1ECF3
:1004E000F0E088E1808386E08093C2008081806AAA
:1004F000808308951F920F920FB60F9211242F93AD
:100500003F938F939F93EF93FF9380912C018823C8
:1005100009F4F0C08091C60090912B01992309F451
:10052000E3C090EE980F9F3518F08D3009F059C058
:10053000209128019091290130E0291B3109215097
:1005400031092F733327232B61F0E0912901F0E06B
:10055000E35DFE4F8083909129019F5F9F7390938D
:100560002901209126019091270130E0291B3109B2
:10057000215031092F733327232B89F0E091270174
:10058000F0E0E359FE4F8083909127019F5F9F73B6
:10059000909327019091C10090629093C1008D309B
:1005A00009F0C5C0809126012091270190E0821BAF
:1005B000910901978F739927892B69F0E0912701A1
:1005C000F0E0E359FE4F8AE08083809127018F5F3E
:1005D0008F738093270180912A018F5F80932A0176
:1005E000A6C0883011F08F37C1F580912901209184
:1005F000280190E0821B91098F739927892B09F4B8
:1006000096C0E0912901F0E0E35DFE4F808180918A
:10061000290181508F7380932901809126012091B7
:10062000270190E0821B910901978F739927892BED
:1006300009F47DC0E0912701F0E0E359FE4F8FE718
:100640008083809127018F5F8F7380932701809132
:10065000C10080628093C1006AC0843009F067C025
:10066000809129012091280190E0821B91098F73CC
:100670009927892B31F1E0912901F0E0E35DFE4FEC
:1006800080818D30F1F0809128012091290190E046
:10069000821B910901978F739927892B91F0E09123
:1006A0002901F0E0E35DFE4F8DE080838091290118
:1006B0008F5F8F738093290180912A018F5F8093D0
:1006C0002A01809128012091290190E0821B910943
:1006D00001978F739927892B51F1E0912901F0E05F
:1006E000E35DFE4F84E019C0833009F581E080931B
:1006F0002B011DC0809128012091290190E0821BCF
:10070000910901978F739927892B79F0E09129013D
:10071000F0E08091C600E35DFE4F80838091290167
:100720008F5F8F738093290102C08091C600FF9173
:10073000EF919F918F913F912F910F900FBE0F904E
:100740001F9018951F920F920FB60F9211242F939E
:100750008F939F93EF93FF93809127012091260120
:1007600090E0821B91098F739927892B79F0E09192
:100770002601F0E0E359FE4F80818093C60080910E
:1007800026018F5F8F738093260105C08091C10081
:100790008F7D8093C100FF91EF919F918F912F9159
:1007A0000F900FBE0F901F90189580912901909186
:1007B0002801891B8F7308958091290120912801B8
:1007C00090E0821B91098F739927892BC1F0E091EA
:1007D0002801F0E0E35DFE4F8081909128019F5F4A
:1007E0009F739093280190912C01992349F08D30AB
:1007F00039F490912A01915090932A01089580E054
:10080000089581E080932C01809129012091280195
:1008100090E0821B91098F739927892BB1F0E091A9
:100820002801F0E0E35DFE4F8081843071F4109286
:100830002B01E0912801F0E0E35DFE4F8081809183
:1008400028018F5F8F738093280180912B01089579
:1008500080912A0108950FB607FE0EC0209126014F
:100860009091270130E0291B3109215031092F7364
:100870003327232B99F30DC0209126019091270156
:1008800030E0291B3109215031092F733327232BE5
:1008900061F0E0912701F0E0E359FE4F8083809101
:1008A00027018F5F8F73809327018091C100806241
:1008B0008093C10008951F93CF93DF93EC0180E0F4
:1008C00011E0180FFE01E80FF11D8081882321F04F
:1008D0000E942B04812FF4CFDF91CF911F910895B7
:1008E0001F93CF93DF93EC0180E011E0180FFE011E
:1008F000E80FF11D8491882321F00E942B04812FA1
:10090000F4CFDF91CF911F910895052E97FB1EF430
:1009100000940E949C0457FD07D00E94AF0407FC7E
:1009200003D04EF40C949C0450954095309521953D
:100930003F4F4F4F5F4F089590958095709561950B
:100940007F4F8F4F9F4F08950E94D104A59F900D18
:10095000B49F900DA49F800D911D11240895A1E2D4
:100960001A2EAA1BBB1BFD010DC0AA1FBB1FEE1F29
:10097000FF1FA217B307E407F50720F0A21BB30B74
:10098000E40BF50B661F771F881F991F1A9469F7F0
:1009900060957095809590959B01AC01BD01CF014C
:1009A0000895A29FB001B39FC001A39F700D811D48
:1009B0001124911DB29F700D811D1124911D089568
:0409C000F894FFCFD9
:1009C400030B443100802500002D00040B4430004B
:1009D400802500002D0002060024F400010C61743F
:0809E4006D65676133323800D4
:1009EC00534552203438362048573420E280932027
:1009FC004E617468616E69656C20427279616E74C7
:060A0C000A0D000D0A00B6
:00000001FF
