:100000000C9434000C9451000C9451000C94510049
:100010000C9451000C9451000C9451000C9451001C
:100020000C9451000C9451000C9451000C9451000C
:100030000C9451000C9451000C9451000C945100FC
:100040000C9451000C9451000C94CD010C94FE01C1
:100050000C9451000C9451000C9451000C945100DC
:100060000C9451000C94510011241FBECFEFD8E026
:10007000DEBFCDBF11E0A0E0B1E0E4E8F5E002C0F2
:1000800005900D92AA32B107D9F721E0AAE2B1E0BA
:1000900001C01D92AE3AB207E1F70E948D010C94A7
:1000A000AC020C940000CF93DF9300D000D000D0BE
:1000B000CDB7DEB79E838D831A82198212C01C824F
:1000C0001B8205C08B819C8101969C838B838B81D5
:1000D0009C81883E9340B0F389819A8101969A83EE
:1000E000898329813A818D819E812817390738F3C8
:1000F000000026960FB6F894DEBF0FBECDBFDF918D
:10010000CF910895CF93DF9300D000D0CDB7DEB765
:100110009C838B831A8219820FC02B813C81898139
:100120009A81820F931FFC0180810E94B80189810E
:100130009A8101969A8389832B813C8189819A8156
:10014000820F931FFC018081882339F700000F90F4
:100150000F900F900F90DF91CF910895CF93DF9381
:1001600000D0CDB7DEB79A83898389819A810997B8
:1001700034F489819A81C0969A83898305C08981E4
:100180009A81C7969A83898389819A810F900F906B
:10019000DF91CF910895CF93DF9300D01F92CDB719
:1001A000DEB78B838FE090E09A8389838B81829581
:1001B0008F70282F30E089819A81822393230E94B7
:1001C000AE000E94B8018B81282F30E089819A818E
:1001D000822393230E94AE000E94B80100000F907A
:1001E0000F900F90DF91CF910895CF93DF93CDB70C
:1001F000DEB728970FB6F894DEBF0FBECDBF988745
:100200008F838FEF90E09A83898389819A812F81F0
:100210003885822393239C838B838F819885292F14
:10022000332789819A81822393239E838D838D81B5
:100230000E94CB008B810E94CB00000028960FB655
:10024000F894DEBF0FBECDBFDF91CF910895CF935D
:10025000DF9300D0CDB7DEB79A83898351C08981FF
:100260009A81FC0180818E32D9F485E290E025E20A
:1002700030E0F90120812260FC0120838AEF90E0C8
:100280000E94530085E290E025E230E0F9012081F0
:100290002D7FFC01208384E690E00E9453002BC058
:1002A00089819A81FC0180818D32D9F485E290E0C8
:1002B00025E230E0F90120812260FC0120838EEEEE
:1002C00092E00E94530085E290E025E230E0F901DF
:1002D00020812D7FFC01208384E690E00E94530062
:1002E0000AC089819A81FC018081803221F488EEE4
:1002F00093E00E94530089819A8101969A838983B1
:1003000089819A81FC018081882309F0A8CF0000AF
:100310000F900F90DF91CF910895CF93DF93CDB7DA
:10032000DEB70E94B40184E290E024E230E0F901FB
:1003300020812260FC01208380E091E00E94820005
:100340008AE00E94CB008FE191E00E9482008EED56
:1003500090EC0E94F5008FE191E00E94820082E221
:1003600091E00E942701FBCF0E94BA017894089582
:100370000C9452021092C00087E690E09093C50062
:100380008093C400E1ECF0E088E1808386E0809314
:10039000C2008081806A808308951F920F920FB6F9
:1003A0000F9211242F938F939F93EF93FF9380913C
:1003B0002C0120912D0190E0821B910901978F73F0
:1003C0009927892B79F0E0912D01F0E08091C6000A
:1003D000E25DFE4F808380912D018F5F8F7380934C
:1003E0002D0102C08091C600FF91EF919F918F91E6
:1003F0002F910F900FBE0F901F9018951F920F9284
:100400000FB60F9211242F938F939F93EF93FF9327
:1004100080912B0120912A0190E0821B91098F731A
:100420009927892B79F0E0912A01F0E0E259FE4FFB
:1004300080818093C60080912A018F5F8F738093A3
:100440002A0105C08091C1008F7D8093C100FF917A
:10045000EF919F918F912F910F900FBE0F901F9052
:10046000189580912D0190912C01891B8F7308950F
:1004700080912D0120912C0190E0821B91098F73B6
:100480009927892B69F0E0912C01F0E0E25DFE4FA5
:10049000808190912C019F5F9F7390932C01089510
:1004A00080E008950FB607FE0EC020912A019091BA
:1004B0002B0130E0291B3109215031092F733327DB
:1004C000232B99F30DC020912A0190912B0130E04C
:1004D000291B3109215031092F733327232B61F058
:1004E000E0912B01F0E0E259FE4F808380912B01D7
:1004F0008F5F8F7380932B018091C1008062809306
:10050000C10008951F93CF93DF93EC0180E011E0C9
:10051000180FFE01E80FF11D8081882321F00E9451
:100520005202812FF4CFDF91CF911F9108951F9335
:10053000CF93DF93EC0180E011E0180FFE01E80F8C
:10054000F11D8491882321F00E945202812FF4CF63
:0C055000DF91CF911F910895F894FFCF28
:10055C00030B443100802500002D00040B443000B7
:10056C00802500002D0002060024F400010C6174AB
:08057C006D6567613332380040
:100584005345522D34383620485733204E61746811
:10059400616E69656C20427279616E740A0D000A9D
:0A05A4000D002D2D2D202D2E2D0011
:00000001FF
