:100000000C943D000C945A000C945A000C945A0025
:100010000C945A000C945A000C9496030C945A00B9
:100020000C945A000C945A000C945A000C94270C0F
:100030000C945A000C945A000C9461040C945A00CD
:100040000C945A000C945A000C94A9120C94D113DD
:100050000C945A000C945A000C9433050C945A00DA
:100060000C945A000C945A005F024B02550269022C
:10007000730285028F0299027D0211241FBECFEF09
:10008000D8E0DEBFCDBF13E0A0E0B1E0E6ECFAE2DD
:1000900002C005900D92A83BB107D9F725E0A8EB67
:1000A000B3E001C01D92AD3AB207E1F70E945C00D7
:1000B0000C944D150C9400000F931F93CF93DF9376
:1000C0001F92CDB7DEB70E941A040E947D120E94D3
:1000D00062080E946A060E94D6030E94740C0E9465
:1000E000C6050E94F00B0E9467030E94EC00198273
:1000F00080E391E00E947A0C81E591E00E947A0C05
:100100008AE591E00E947A0C80E00E9497070E94A5
:10011000020C68E873E181E090E00E94ED040E9427
:1001200070030E94E50581E090E00E94D404892BD1
:1001300031F10E94080C9093010180930001E0913D
:10014000A504F091A6042091A3043091A404409149
:10015000A1045091A20460919F047091A004809129
:100160000001909101018F010E941E020E94020C69
:1001700068EE73E081E090E00E94ED04D0CF8981C9
:10018000882359F40E94ED0D882349F28DE591E012
:100190000E947A0C81E08983C2CF0E94EF0D8823F0
:1001A00069F00E94330E0E94ED0D882309F0B7CF4D
:1001B00086E791E00E94E50D1982B1CF0E94C20549
:1001C000892B11F40E942F070E94C205892B09F088
:1001D000A6CF0E943504A3CFCF93DF93CDB7DEB770
:1001E0000E94D6030000DF91CF910895CF93DF9353
:1001F00000D000D0CDB7DEB79A8389837C836B8330
:1002000029813A818B819C81281739077CF486E00B
:1002100080939A0485E090E00E94D70385E00E94D5
:10022000970788E891E00E94D30507C086E090E038
:100230000E94D70386E00E94970700000F900F905E
:100240000F900F90DF91CF910895CF93DF9300D05F
:1002500000D000D0CDB7DEB79A8389837C836B83CF
:100260005E834D8329813A818D819E8128173907CC
:100270007CF087E080939A0485E090E00E94D703A9
:1002800085E00E9497078AE891E00E94D30516C096
:1002900029813A818B819C812817390744F482E0B7
:1002A00080939A048CE891E00E94D30507C086E011
:1002B00090E00E94D70386E00E94970700002696F0
:1002C0000FB6F894DEBF0FBECDBFDF91CF9108957A
:1002D000CF93DF9300D000D000D0CDB7DEB79A83A4
:1002E00089837C836B835E834D8329813A818B81F3
:1002F0009C81281739077CF085E080939A0486E07A
:1003000090E00E94D70386E00E94970788E891E07A
:100310000E94D3051AC029813A818D819E8182175E
:1003200093077CF083E080939A0488E090E00E9439
:10033000D70388E00E94970788E891E00E94D305E0
:1003400004C08CE891E00E94D305000026960FB609
:10035000F894DEBF0FBECDBFDF91CF910895CF934C
:10036000DF9300D000D0CDB7DEB79A8389837C833A
:100370006B8329813A818B819C81821793077CF45E
:1003800084E080939A0488E090E00E94D70388E09C
:100390000E94970788E891E00E94D30507C087E094
:1003A00090E00E94D70387E00E94970700000F901B
:1003B0000F900F900F90DF91CF910895CF93DF931F
:1003C00000D000D000D0CDB7DEB79A8389837C837C
:1003D0006B835E834D8329813A818D819E81821753
:1003E00093077CF088E080939A0487E090E00E9475
:1003F000D70387E00E9497078AE891E00E94D3051F
:1004000013C029813A818B819C812817390744F0D8
:1004100081E080939A048CE891E00E94D30504C0A7
:1004200088E090E00E94D703000026960FB6F8946B
:10043000DEBF0FBECDBFDF91CF9108950F931F9305
:10044000CF93DF93CDB7DEB72A970FB6F894DEBF10
:100450000FBECDBF9A8389837C836B835E834D837C
:1004600038872F831A87098780919A04882F90E014
:10047000092E000CAA0BBB0B40E050E028E030E056
:10048000841B950B2817390708F45BC08C5C9F4FC1
:10049000FC010C942D1549855A852D813E81898159
:1004A0009A81B9010E9468014CC049855A852D8105
:1004B0003E8189819A81B9010E94680142C04985C3
:1004C0005A852D813E8189819A81B9010E946801F6
:1004D00038C04F81588529853A8589819A81B9012B
:1004E0000E94DE012EC04F81588529853A85898179
:1004F0009A81B9010E94DE0124C02F81388589814B
:100500009A81B9010E94AF011CC04B815C812D8191
:100510003E8189819A81B9010E94250112C04B81D7
:100520005C812D813E8189819A81B9010E942501DA
:1005300008C02B813C8189819A81B9010E94F60013
:10054000000000002A960FB6F894DEBF0FBECDBFA4
:10055000DF91CF911F910F910895CF93DF93CDB786
:10056000DEB710929A040000DF91CF910895CF93E7
:10057000DF9300D000D0CDB7DEB79C838B83809112
:10058000A1049091A2049A8389832091A1043091BF
:10059000A2048B819C812817390794F48B819C815C
:1005A0008F3F93406CF48B819C819093A004809347
:1005B0009F040E94E9030E94350480E090E002C09D
:1005C00081E090E00F900F900F900F90DF91CF910E
:1005D0000895CF93DF9300D0CDB7DEB79A83898398
:1005E0002091A5043091A60489819A8128173907A2
:1005F000B4F420919F043091A00489819A818217DC
:1006000093076CF489819A819093A2048093A1044A
:100610000E94E9030E94350480E090E002C081E07E
:1006200090E00F900F90DF91CF910895CF93DF93DB
:1006300000D0CDB7DEB79A8389832091A50430918D
:10064000A60489819A81821793076CF489819A8123
:100650009093A4048093A3040E94E9030E943504AC
:1006600080E090E002C081E090E00F900F90DF9179
:10067000CF910895CF93DF9300D0CDB7DEB79A83A3
:1006800089832091A3043091A40489819A81281739
:100690003907B4F42091A1043091A20489819A8190
:1006A000821793076CF489819A819093A6048093B2
:1006B000A5040E94E9030E94350480E090E002C096
:1006C00081E090E00F900F90DF91CF910895E0E6E8
:1006D000F0E08081836080838081886080830895DA
:1006E000CF93DF93CDB7DEB70000DF91CF910895B0
:1006F000CF93DF93CDB7DEB781E00E9497070E94CA
:1007000065070E944D0480E690E020E630E0F901A4
:100710002081277FFC01208380E690E020E630E006
:10072000F90120812064FC012083FFCF1F920F92EA
:1007300000905F000F9211242F933F934F935F938C
:100740006F937F938F939F93AF93BF93EF93FF9399
:10075000CF93DF93CDB7DEB782E00E94970780E6A4
:1007600090E020E630E0F9012081277FFC01208322
:1007700080E690E020E630E0F90120812064FC0171
:1007800020830000DF91CF91FF91EF91BF91AF9156
:100790009F918F917F916F915F914F913F912F9199
:1007A0000F9000925F000F901F9018950895CF93BF
:1007B000DF93EC0181ED91E00E947A0CBE0180E0B4
:1007C00090E00E94A80C86EF91E0DF91CF910C940D
:1007D0007A0C81E08093B803089580919B04813462
:1007E00061F480919C04833541F481E090E0209194
:1007F0009D04253521F080E002C080E090E0EBE927
:10080000F4E020E03191230F34E0EE3AF307D1F722
:10081000222311F080E090E0089562E170E082E030
:1008200091E00E94441142E162E071E080E490E0D6
:100830000C9479050E94C205892BE1F742E16BE92E
:1008400074E080E490E00E94AD050E94ED03892BE6
:1008500049F40E940D0442E16BE974E080E490E009
:100860000E94AD051092B80308950E94C205892B1D
:1008700099F48091B803882379F062E170E08BE904
:1008800094E00E94441142E16BE974E080E490E05E
:100890000E9479051092B80308958091B8038823C7
:1008A00079F062E170E08BE994E00E94441142E14A
:1008B0006BE974E080E490E00E9496051092B80322
:1008C00008951F920F920FB60F9211242F933F930A
:1008D0008F939F93AF93BF932091C3033091C40331
:1008E0008091BB039091BC032817390749F0809190
:1008F000C3039091C40301969093C4038093C303F0
:100900002091C5033091C6038091BD039091BE0331
:100910002817390749F08091C5039091C6030196C5
:100920009093C6038093C5038091BF039091C00349
:10093000A091C103B091C2030196A11DB11D809386
:10094000BF039093C003A093C103B093C203BF91B0
:10095000AF919F918F913F912F910F900FBE0F906C
:100960001F90189589EF87BD82E084BD93E095BD07
:10097000789480936E001092BF031092C00310927F
:10098000C1031092C20308958230910550F4F89487
:10099000880F991FFC01ED53FC4F80819181789461
:1009A000089580E090E008958230910598F4880FD2
:1009B000991FFC01ED53FC4F20813181FC01E5546E
:1009C000FC4F81E090E0408151814217530721F0B4
:1009D00080E0089580E090E008950F931F93CF93F7
:1009E000DF93EC018B018091B9039091BA03892BBD
:1009F00041F40E94B20481E090E09093BA038093A6
:100A0000B903C230D10570F48FB7F894CC0FDD1F55
:100A1000FE01E554FC4F11830083CD53DC4F198256
:100A200018828FBFDF91CF911F910F910895809110
:100A3000B9039091BA03892B41F40E94B20481E07A
:100A400090E09093BA038093B903F8946091BF0348
:100A50007091C0038091C1039091C203789408956E
:100A6000FA9AF99A08951F920F920FB60F921124D5
:100A70002F933F934F935F936F937F938F939F93A6
:100A8000AF93BF93EF93FF93E091F1048091B00493
:100A9000E81720F0FB981092AD041AC08091AE04C4
:100AA0009091AF0492BD81BD81E08E0F8093F104DF
:100AB000F0E0EF54FB4F808180BD8091AE049091B7
:100AC000AF0401969093AF048093AE040E9430056A
:100AD000FF91EF91BF91AF919F918F917F916F9116
:100AE0005F914F913F912F910F900FBE0F901F90EC
:100AF00018952091AD042111FCCF9093AF04809301
:100B0000AE0481E08093AD041092F1044093B004F0
:100B1000962FA1EBB4E0FB018E2F891B841718F4EC
:100B200081918D93F9CF7894FB9A0895FB01861BF0
:100B3000970B50E0DC01AE0FBF1F9F01261B370B48
:100B40002417350748F4F999FECFB2BDA1BD219114
:100B500020BDFA9AF99AEECF08952091AD042111A3
:100B6000FCCFFB01861B970B2E2F261B241748F466
:100B70009C012E0F3F1F32BD21BDF89A20B5219355
:100B8000F3CF08958091AD0490E0089560E070E0A7
:100B900080E090E00E94ED04219A29980895299A16
:100BA0000895299808959093C8038093C7031092DD
:100BB000CB031092CA031092C90360E070E080E09A
:100BC00090E00E94ED040C94D1058091C7039091B0
:100BD000C803892B09F452C080E090E00E94D4043D
:100BE000892B09F44BC08091C903811134C0209135
:100BF000CA033091CB03E091C703F091C803E20F21
:100C0000F31F80818032E9F03CF481111DC0109205
:100C1000CB031092CA0308958D3239F08E32A1F4BD
:100C20000E94CF056AEF70E004C00E94CF056EEE0F
:100C300072E080E090E00E94ED0481E08093C903BF
:100C4000089568EE73E00BC02F5F3F4F3093CB03E6
:100C50002093CA0308950E94D10564E670E080E005
:100C600090E00E94ED041092C9038091CA03909114
:100C7000CB0301969093CB038093CA03089585B16B
:100C80008695817090E008958031910504F527E004
:100C9000289FA001299F500D1124FA01E153FC4F18
:100CA00080818132A0F480E090E020E0FA01E80F3A
:100CB000F91FE153FC4F3081230F019687309105D6
:100CC000A9F781E090E0222321F080E0089580E000
:100CD00090E008956F927F928F929F92AF92BF9211
:100CE000CF92DF92EF92FF920F931F93CF93DF93F8
:100CF0000E94C205892BE1F70FE314E0C0E8D0E0C1
:100D0000BE01615B7C4F47E0CE010E94AD05F8015A
:100D100011928F012796C03FD10591F74FECE42E39
:100D200043E0F42E8701C0E0D0E0D12CB12C772431
:100D30007A94CE010E944406892B41F0F80180810B
:100D4000871520F4BC2E782EDD24D3942196095FDC
:100D50001F4FC031D10569F7DD2009F46AC0B09298
:100D6000CE037092CD03CB2DD0E08E010F5F1F4FCD
:100D7000872C2FE0A22E37E0932E6801FFE0CF22D0
:100D8000DD24C6010E944406892B61F4B092CC0395
:100D90008E0101501109609780E1A82EB12C97E0D7
:100DA000692E3AC09C9CF0019D9CF00D1124E153EA
:100DB000FC4F4081242F30E0882D90E001968F7108
:100DC00099272817390711F7C092CE034093CD0316
:100DD000AA940F5F1F4FAA20C9F2842ECECFF7012D
:100DE000208130E0872D90E04F968F71992728174A
:100DF000390731F5C092CC03689CF001699CF00D75
:100E00001124E153FC4F708001501109F7E0EF0EFF
:100E1000F11C0C171D07A1F0C801B5010E94D814E0
:100E20006C014C019924C4010E944406892BB9F637
:100E300007C08FE08093CE031092CD031092CC03B5
:100E4000DF91CF911F910F91FF90EF90DF90CF90A6
:100E5000BF90AF909F908F907F906F900895EF928A
:100E6000FF921F93CF93DF930E94C205892B39F520
:100E7000EFE3F4E0C0E0D0E081918823E1F017E0F7
:100E80001C9FC0011D9F900D11249C0121533C4FBC
:100E9000790167E070E0C9010E944411C19FC0015F
:100EA000112447E0B70180589F4F0E947905C15C2B
:100EB000DB4F188204C02196C031D105E9F6DF91DD
:100EC000CF911F91FF90EF900895EF92FF921F93A3
:100ED000CF93DF93EFE3F4E0C0E0D0E0819188238B
:100EE000E1F017E01C9FC0011D9F900D11249C0193
:100EF00021533C4F790167E070E0C9010E94441121
:100F0000C19FC001112447E0B70180589F4F0E9444
:100F10009605C15CDB4F188204C02196C031D10513
:100F2000E9F6DF91CF911F91FF90EF900895EF9236
:100F3000FF920F931F93CF93DF93E82EC091CE03C0
:100F4000D0E02196CF70DD278091CC0390E00E9405
:100F50004406F82E8091CD038F5F813218F4809380
:100F6000CD0302C01092CD0387E08C9F80018D9F3E
:100F7000100D112401531C4F8091CD03F801808383
:100F80000E946408F8016183728383839483E582FD
:100F9000C093CE0367E070E0C8010E944411C15CB9
:100FA000DB4F81E088838091CE039091CC0389133D
:100FB00008C0FF2031F090E001968F709927809350
:100FC000CC03DF91CF911F910F91FF90EF90089587
:100FD000EFECF3E0AFE3B4E08FEF4FEF5FEFBA0178
:100FE00091E08083858341835283638374839D93DF
:100FF000379624E0EF33F207A1F78FE08093CE031A
:101000001092CC031092CD0308950F931F93CF93AA
:10101000DF930091CC03C02F10E0D0E0CE010E94FE
:101020004406892B29F02196CF701F5F0C13F5CF52
:10103000812FDF91CF911F910F910895AF92BF92B1
:10104000CF92DF92EF92FF920F931F93CF93DF9394
:101050006B017C018A0159010E94050890E0A0E023
:10106000B0E0C816D906EA06FB06F8F48091CC0376
:1010700090E0C80ED91E8FE0C822DD2487E08C9D49
:10108000F0018D9DF00D1124E153FC4F818192817F
:10109000A381B481E80188839983AA83BB83858176
:1010A000F501808381E090E002C080E090E0DF9174
:1010B000CF911F910F91FF90EF90DF90CF90BF9055
:1010C000AF9008950C944C0C0C945C0C6093F2045B
:1010D0007093F3048093F4049093F5040C94680CDB
:1010E0009C0160E971E00E94C414892B79F0C90168
:1010F00083709927892B61F4C90164E670E00E942E
:10110000C4149C0181E0232B21F402C081E00895E6
:1011100080E008952F923F924F925F926F927F925C
:101120008F929F92AF92BF92CF92DF92EF92FF92F7
:101130000F931F93CF93DF93CDB7DEB767970FB6AB
:10114000F894DEBF0FBECDBF2CE0EEE8F1E0AE01BB
:101150004F5F5F4F1A01DA0101900D922A95E1F776
:10116000DC012C91220F2056322F330F330F230F27
:1011700011963C9111973153230F2D8713962C9183
:101180001397022E000C330B205331096AE0629F43
:10119000A001639F500D11241496CC900C2C000CD0
:1011A000DD08B0E3CB1AD108C40ED51E860101506C
:1011B0001109FC012681022E000C330B205331094A
:1011C000E8EEF3E02E9FA0012F9F500D3E9F500DA3
:1011D0001124DC0117962C911797022E000C330B6B
:1011E0002053310974E6729F7001739FF00C112433
:1011F000E40EF51E18964C911897042E000C550B12
:1012000040535109649F9001659F300D1124E20EF7
:10121000F31E19962C911997F701E20FF11D27FD86
:10122000FA95AF0158507A011B962C911B97220F0B
:101230002056322F330F330F230F1C963C911C97EF
:101240003053230F298B1E962C911E97220F205668
:10125000322F330F330F230F1F963C911F973053BC
:10126000230F2A8B51962C915197220F2056322F03
:10127000330F330F230F52968C918053280F2B8BF3
:10128000CA010E947008882321F05D85523008F061
:101290008601C70160E971E00E94C414FC01DB0112
:1012A00020E839E540E650EF0E9442152B013C0151
:1012B000CF0164E670E00E94C414FC01DB0120E071
:1012C00032EC47E15CEB0E9442154B015C01DF010F
:1012D000B695A795B695A79520E83FE146E857E073
:1012E0000E9442156B017C01DF01A370BB2720E83F
:1012F00033E341EE51E00E9442156C8B7D8B8E8B67
:101300009F8BF1018E2F82199D85891720F4819181
:10131000080F111DF7CFA9892A2F30E0A0E1BEE008
:101320000E9433156D877E878F87988BBA892B2F04
:1013300030E0ACE3B0E00E9433152D853E854F854B
:101340005889260F371F481F591FDA01C9013B89E9
:10135000830F911DA11DB11D480E591E6A1E7B1ED3
:10136000840C951CA61CB71CC80CD91CEA1CFB1CC1
:101370008C899D89AE89BF89C80ED91EEA1EFB1EC5
:10138000D80120E831E541E050E00E944215DC013F
:10139000CB018C0D9D1DAE1DBF1D8093F20490935B
:1013A000F304A093F404B093F50467960FB6F89491
:1013B000DEBF0FBECDBFDF91CF911F910F91FF9088
:1013C000EF90DF90CF90BF90AF909F908F907F90E5
:1013D0006F905F904F903F902F900C94680CEF921D
:1013E000FF920F931F93CF93DF93CDB7DEB768972C
:1013F0000FB6F894DEBF0FBECDBF7B012CE0EEE848
:10140000F1E0DE011D9601900D922A95E1F78E0123
:101410000F5F1F4F2CE0F80111922A95E9F70E9407
:1014200070088A83DE011D9680E0F70140815181BA
:101430009D91F80121918F0130E0290F311D421754
:10144000530740F0421B530BF701518340838F5FDA
:101450008C3059F768960FB6F894DEBF0FBECDBF3B
:10146000DF91CF911F910F91FF90EF9008954F92D0
:101470005F926F927F928F929F92AF92BF92CF9224
:10148000DF92EF92FF92CF93DF9300D0CDB7DEB71C
:101490002B013C0181E090E0A0E0B0E020E84216A2
:1014A00029E5520620E6620620EF720618F480E075
:1014B00090E0DC0120E931E0829F5001839FB00C75
:1014C000929FB00C112480E3A81A88EFB80AC12CAF
:1014D000D12C7601C39420E8421629E5520620E675
:1014E000620620EF720618F4C12CD12C7601A701F8
:1014F000960160E879E580E690EF0E94B4147301EC
:101500006201C61AD70AE80AF90A81E090E0A0E071
:10151000B0E0C11422ECD20627E1E2062CEBF20681
:1015200018F480E090E0DC0144E6489F9001499F78
:10153000300D1124A20EB31E21E030E040E050E057
:10154000C11482ECD80687E1E8068CEBF80618F4A3
:1015500020E030E0A90160E072EC87E19CEB0E94A2
:10156000B414A7019601261B370B480B590BCA016F
:10157000B90120E83FE146E857E00E94EC14220F51
:10158000331F220F331FA20EB31E20E833E341EEB8
:1015900051E00E94EC147501E20EF31E20E831E5E3
:1015A00041E050E00E94EC144B015C013A83298336
:1015B000BE016F5F7F4FC7010E94EF09D82EC501A2
:1015C000B40120E13EE040E050E00E94EC1429012B
:1015D0003A014B015C016BED71E084E191E00E9406
:1015E0007B0B6D2D70E06F5F7F4F42E084E191E0F7
:1015F0000E948E0B69817A816F5F7F4F42E087E1A5
:1016000091E00E948E0B44E0B7018AE191E00E94D4
:101610008E0B42E0B2018FE191E00E948E0BC5017A
:10162000B4012CE330E040E050E00E94EC144901AA
:101630005A016B017C0142E0B40182E291E00E9418
:101640008E0B42E0B60185E291E00E948E0B84E1B0
:1016500091E00F900F90DF91CF91FF90EF90DF908E
:10166000CF90BF90AF909F908F907F906F905F9042
:101670004F9008950F931F930E945C0C0091F20409
:101680001091F3042091F4043091F504600F711F60
:10169000821F931F1F910F910C94370AFB01480F73
:1016A000591F8417950729F02191DC012D93CD0155
:1016B000F8CF0895480F591F8417950721F0FC01B2
:1016C0006193CF01F9CF0895FB01480F591F84178B
:1016D000950759F0DC013D91CD012191321740F081
:1016E0002317A8F781E090E0089580E090E0089546
:1016F0008FEF9FEF0895FC01DB018D91BD018823E1
:1017000011F08193F9CF10820895FC019F01281BED
:10171000390B41914111FACFC90108959F92AF92BF
:10172000BF92CF92DF92EF92FF920F931F93CF93CE
:10173000DF9300D000D01F92CDB7DEB7FC016B0164
:101740009E012F5F3F4F8E010A5F1F4FEE24E394EF
:10175000F12C9AE0992E9E9C50019F9CB00C112474
:10176000C601B5010E94C414B7010E94C414D90176
:101770006D939D01C61AD10867FDD3947501A0171A
:10178000B10749F760E070E084E090E050E0D801F4
:101790002E918D01211105C06115710511F400977D
:1017A00041F4841795072CF4205D219361E070E0EB
:1017B00004C0841795070CF43196019740F70F90F9
:1017C0000F900F900F900F90DF91CF911F910F917D
:1017D000FF90EF90DF90CF90BF90AF909F900895D3
:1017E00088EC80937C0086E880937A00089580914D
:1017F0007A00829586958695837091E0892781701D
:1018000090E00895EAE7F0E08081806480830895A5
:10181000809178002091790030E0322F2227A901B1
:10182000330F660B770B9A01AB01282BA5E6B0E0CE
:101830000E94421524E630E040E050E00E940E1580
:10184000DA01C90181519140A109B10908951F929E
:101850000F920FB60F9211248F939F93AF93BF9364
:1018600080914F0490915004A0915104B091520482
:101870000196A11DB11D80934F0490935004A09335
:101880005104B0935204BF91AF919F918F910F90EB
:101890000FBE0F901F90189583E294EF90938900EC
:1018A00080938800109280008CE08093810078946F
:1018B00082E080936F0008952FB7F89460914F04F1
:1018C0007091500480915104909152042FBF08955B
:1018D0008FB7F89410924F04109250041092510454
:1018E000109252048FBF08950E9496127894089522
:1018F0000C945A14CF93DF93EC018991882319F04B
:101900000E945A14FACFDF91CF910895CF93C82F38
:1019100090E024E0959587952A95E1F78A3010F4B8
:10192000805D01C0895C0E945A148C2F8F708A30B0
:1019300010F0895C01C0805DCF910C945A14CF9354
:10194000C82F892F0E94860C8C2FCF910C94860C67
:101950002F923F924F925F926F927F928F929F92BF
:10196000AF92BF92CF92DF92EF92FF920F931F93AD
:10197000CF93DF93CDB7DEB763970FB6F894DEBF92
:101980000FBECDBF6B017C0197FF0DC0F094E094BA
:10199000D094C094C11CD11CE11CF11C81E090E0EA
:1019A0009B8B8A8B02C01B8A1A8AFE0131965F01CB
:1019B0008E01055F1F4FF98BE88B66246394712CB1
:1019C000812C912CAAE0B0E09301A4010E94421561
:1019D0001B012C01C701B6019101A2010E940E1545
:1019E0009301A4010E940E15E889F9892193F98BCE
:1019F000E88B822F220F990BAA0BBB0BC81AD90AAE
:101A0000EA0AFB0A310142010E171F07D9F68A893B
:101A10009B89892B19F08DE20E945A1420E030E056
:101A2000F80182918F01811106C02115310519F449
:101A3000EA15FB0529F4805D0E945A1421E030E08C
:101A40000A151B0569F763960FB6F894DEBF0FBE43
:101A5000CDBFDF91CF911F910F91FF90EF90DF905D
:101A6000CF90BF90AF909F908F907F906F905F903E
:101A70004F903F902F9008950C9430140C9457146D
:101A8000FF920F931F93CF93DF93EC01062FF72E56
:101A900018820E94301410E08823D9F00E940414A8
:101AA0008823B9F00E940B14803210F089931F5FD5
:101AB000E02FFF2D482F50E02191222339F0022EF4
:101AC000000C330B42175307B9F702C08D3051F7A2
:101AD0001882812FDF91CF911F910F91FF90089570
:101AE0000F931F93CF93DF938C01EC01699170E00A
:101AF00080E090E00E94A80C0C5F1F4F8EE20E94D5
:101B00005A14699170E080E090E00E94A80CC01720
:101B1000D107A1F786EF91E0DF91CF911F910F914F
:101B20000C947A0CCF93DF93EC0182E20E94780C44
:101B3000CE010E947A0C82E2DF91CF910C94780C56
:101B40008FEE91E00C947A0CDC01809153048D327D
:101B500029F48FEF9FEFE4E5F4E004C081E090E02A
:101B6000E3E5F4E011961C921E926AE040812D910B
:101B70003C9111974423C1F0629FA001639F500DD7
:101B8000112411965C934E93219130ED320F3A302F
:101B9000B8F4022E000C330B20533109240F351FEB
:101BA00011963C932E93E2CF289FA001299F500DC0
:101BB000389F500D11244D935C9381E090E008957F
:101BC00080E090E008950C94780C0C947A0C0C94BE
:101BD000860C0C949F0C0C94A80C0C9430140C9450
:101BE0005714FF920F931F93CF93DF93EC01062FAF
:101BF000F72E18820E94301410E08823D9F00E943A
:101C000004148823B9F00E940B14803210F08993D9
:101C10001F5FE02FFF2D482F50E02191222339F044
:101C2000022E000C330B42175307B9F702C08D3058
:101C300051F71882812FDF91CF911F910F91FF9063
:101C4000089569EF71E083E594E00E94F10D882327
:101C500049F0E82FF0E0EE5AFB4F80818F3289F394
:101C6000803279F308950F931F93CF93DF9300D0C1
:101C700000D01F92CDB7DEB769EF71E083E594E045
:101C80000E94F10D6CEF71E083E594E00E94291150
:101C9000892B09F0BBC169EF71E083E594E00E94F4
:101CA000F10D67E773E083E594E00E942911892B29
:101CB00009F081C269EF71E083E594E00E94F10DC3
:101CC00061E072E083E594E00E942911892B09F01C
:101CD00072C284E193E00E947A0C86EF91E00E9448
:101CE0007A0C88E092E00E947A0C86EF91E00E94E4
:101CF0007A0C82E192E00E947A0C8AEF94E00E94D2
:101D0000920D8CE20E94780C86EF91E00E947A0C92
:101D10008FE192E00E947A0C86E095E00E94920D9D
:101D20008CE20E94780C86EF91E00E947A0C83E3AB
:101D300092E00E947A0C82E195E00E94920D8CE282
:101D40000E94780C86EF91E00E947A0C88E492E081
:101D50000E947A0C60911E0570911F0580912005EC
:101D6000909121050E94370A8C01FC01128682E2C3
:101D70000E94780CC8010E947A0C82E20E94780CC2
:101D80008CE20E94780C86EF91E00E947A0C80E64B
:101D900092E00E947A0C809122050E94860C03E258
:101DA00015E08AE30E94780CF80181918F010E946E
:101DB000860CF5E008321F07A1F784E792E00E9445
:101DC0007A0C86EF91E00E947A0C87E792E00E94FD
:101DD0007A0C88E295E00E94920D86EF91E00E94D5
:101DE0007A0C87E393E00E947A0C86EF91E00E94E0
:101DF0007A0C8BE892E00E947A0C60919F047091BB
:101E0000A004072E000C880B990B0E94A80C8CE2F2
:101E10000E94780C86EF91E00E947A0C89E992E0AA
:101E20000E947A0C6091A1047091A204072E000C0C
:101E3000880B990B0E94A80C8CE20E94780C86EF0C
:101E400091E00E947A0C87EA92E00E947A0C6091FD
:101E5000A3047091A404072E000C880B990B0E9418
:101E6000A80C8CE20E94780C86EF91E00E947A0C1C
:101E700085EB92E00E947A0C6091A5047091A60413
:101E8000072E000C880B990B0E94A80C8CE20E9474
:101E9000780C86EF91E00E947A0C83EC92E00E942D
:101EA0007A0C6091000170910101072E000C880BE3
:101EB000990B0E94A80C8CE20E94780C86EF91E0AE
:101EC0000E947A0C84ED92E00E947A0C80910001CD
:101ED0009091010120919F043091A00482179307F3
:101EE0001CF08FED92E020C02091A1043091A2045B
:101EF000821793071CF087EE92E016C02091A5048C
:101F00003091A604281739071CF48FEE92E00CC01C
:101F10002091A3043091A404281739071CF486EFFC
:101F200092E002C08EEF92E00E947A0C8CE20E9456
:101F3000780C86EF91E00E947A0C86E093E00E9494
:101F40007A0C86EF91E00E947A0C10E00E9405085E
:101F5000181708F048C0812F90E0A0E0B0E09E0183
:101F60002B5F3F4FAE014F5F5F4FBC01CD010E9421
:101F70001E08112339F08CE20E94780C86EF91E064
:101F80000E947A0C80E193E00E947A0C86EF91E047
:101F90000E947A0C86E193E00E947A0C82E20E9411
:101FA000780C69817A818B819C810E94370A0E941A
:101FB0007A0C82E20E94780C8CE20E94780C89E212
:101FC00093E00E947A0C6D8170E080E090E00E94C6
:101FD000A80C86EF91E00E947A0C85E393E00E94C2
:101FE0007A0C1F5FB3CF86EF91E00E947A0C8BE3EF
:101FF00093E00E947A0C86EF91E00E947A0C89E3CC
:1020000093E00E947A0C86EF91E017C16FE373E0D2
:1020100083E594E00E942911892B09F0D8C069EF6B
:1020200071E083E594E00E94F10D67E773E083E5DA
:1020300094E00E942911892B09F0BDC064E473E08B
:1020400083E594E00E94F10D68E473E083E594E099
:102050000E942911892B89F560E573E083E594E0FE
:102060000E94F10D64E573E083E594E00E9429117C
:10207000892B09F0A0C069EF71E083E594E00E942C
:10208000F10D6BE573E083E594E00E942911892B43
:1020900029F483E693E00E947A0C8FC06AE673E02D
:1020A00083E594E00E942911892B09F084C083E61E
:1020B00093E00E947A0C0E94780361E773E083E565
:1020C00094E00E942911892B09F075C064E473E043
:1020D00083E594E00E94F10D69E773E083E594E005
:1020E0000E942911892B09F066C061E873E083E53D
:1020F00094E00E94F10D64E873E083E594E00E94AF
:102100002911892B91F469EF71E083E594E00E9435
:10211000F10DCE0101960E94A40D892B09F44BC04C
:1021200089819A810E94B7024FC06EE873E083E50F
:1021300094E00E942911892B89F469EF71E083E50D
:1021400094E00E94F10DCE0101960E94A40D892B0E
:1021500091F189819A810E94E90236C068E973E0B1
:1021600083E594E00E942911892B89F469EF71E0DD
:1021700083E594E00E94F10DCE0101960E94A40D2A
:10218000892BC9F089819A810E9416031DC062EAD9
:1021900073E083E594E00E942911892B61F469EFD3
:1021A00071E083E594E00E94F10DCE0101960E945A
:1021B000A40D892B29F40E94A00D0E94210E3FC07E
:1021C00089819A810E943A03892BA9F1F4CF6CEAA4
:1021D00073E083E594E00E942911892B61F769EF90
:1021E00071E083E594E00E94F10D67E773E083E519
:1021F00094E00E942911892BF1F669EF71E083E5E3
:1022000094E00E94F10D61E773E083E594E00E94A1
:102210002911892B81F669EF71E083E594E00E9432
:10222000F10D64EB73E083E594E00E942911892BA2
:1022300011F60E94E80783E693E00E947A0C0F9063
:102240000F900F900F900F90DF91CF911F910F91F2
:102250000895DC01FB019D91992341F0819189173B
:1022600084F09817C4F78FEF9FEF089581E090E016
:102270002081211102C080E090E091958195910923
:10228000089581E090E00895DC0190E020E0615045
:102290007109422F50E0FD01E40FF51F4617570763
:1022A00020F48081980F2F5FF4CF9195908308954B
:1022B000611571058105910541F060932C017093C2
:1022C0002D0180932E0190932F0121153105410599
:1022D000510541F0209328013093290140932A01B0
:1022E00050932B0108954F925F926F927F928F923D
:1022F0009F92AF92BF92CF92DF92EF92FF92CF93D5
:10230000DF9300D000D0CDB7DEB72B013C0129838D
:102310003A834B835C83C0902801D0902901E090E0
:102320002A01F0902B01A701960144275527A9E621
:10233000B0E90E9442156701EE24FF244B015C01C5
:102340008C0C9D1CAE1CBF1C809228019092290110
:10235000A0922A01B0922B01C0902C01D0902D01A7
:10236000E0902E01F0902F01A701960144275527F8
:10237000A0E5B6E40E9442156701EE24FF24C60ED4
:10238000D71EE81EF91EC0922C01D0922D01E092BA
:102390002E01F0922F01D40199278827BC01CD018D
:1023A0006C0D7D1D8E1D9F1D29813A814B815C81A5
:1023B00024193509460957090E94EC14CB01840DF4
:1023C000951D0F900F900F900F90DF91CF91FF9080
:1023D000EF90DF90CF90BF90AF909F908F907F90C5
:1023E0006F905F904F900895CF93DB01FC012081A7
:1023F0002D3221F401966FEF7FEF02C061E070E0B3
:1024000011961C921E92FC01CAE020818D919C9134
:1024100011972223C1F0C89FA001C99F500D11241C
:1024200011965C934E93219180ED820F8A30B8F41F
:10243000022E000C330B20533109240F351F119647
:102440003C932E93E2CF869F9001879F300D969FFD
:10245000300D11242D933C9381E090E002C080E088
:1024600090E0CF9108958091F604833561F48091D6
:10247000F704853441F481E090E02091F80422359E
:1024800021F080E002C080E090E0E6EFF4E020E0A0
:102490003191230F35E0EE32F307D1F7222311F00B
:1024A00080E090E00895CF93DF93CDB7DEB7E79754
:1024B0000FB6F894DEBF0FBECDBF87E3EAE9F1E0C7
:1024C000DE01119601900D928A95E1F767E370E0C5
:1024D000CE0101960E94441147E3BE016F5F7F4F1A
:1024E00080E090E00E947905E7960FB6F894DEBF91
:1024F0000FBECDBFDF91CF9108950E94C205892BF9
:10250000E1F747E366EF74E080E090E00E94AD05FC
:102510000E943312892B49F40E94531247E366EF5D
:1025200074E080E090E00C94AD0508951092C00036
:1025300087E690E09093C5008093C400E1ECF0E062
:1025400088E1808386E08093C2008081806A8083F6
:1025500008951F920F920FB60F9211242F933F935D
:102560008F939F93EF93FF9380919904882309F4AD
:10257000F0C08091C60090919804992309F4E3C0BB
:1025800090EE980F9F3518F08D3009F059C02091CA
:1025900095049091960430E0291B310921503109AE
:1025A0002F733327232B61F0E0919604F0E0E35D75
:1025B000FA4F8083909196049F5F9F739093960447
:1025C000209193049091940430E0291B310921500B
:1025D00031092F733327232B89F0E0919404F0E025
:1025E000E359FA4F8083909194049F5F9F73909377
:1025F00094049091C10090629093C1008D3009F0D5
:10260000C5C0809193042091940490E0821B9109AD
:1026100001978F739927892B69F0E0919404F0E07A
:10262000E359FA4F8AE08083809194048F5F8F731F
:1026300080939404809197048F5F80939704A6C041
:10264000883011F08F37C1F5809196042091950460
:1026500090E0821B91098F739927892B09F496C00A
:10266000E0919604F0E0E35DFA4F8081809196045A
:1026700081508F73809396048091930420919404E9
:1026800090E0821B910901978F739927892B09F498
:102690007DC0E0919404F0E0E359FA4F8FE7808326
:1026A000809194048F5F8F73809394048091C10014
:1026B00080628093C1006AC0843009F067C0809155
:1026C00096042091950490E0821B91098F739927BD
:1026D000892B31F1E0919604F0E0E35DFA4F8081BF
:1026E0008D30F1F0809195042091960490E0821B4A
:1026F000910901978F739927892B91F0E0919604A6
:10270000F0E0E35DFA4F8DE08083809196048F5F67
:102710008F7380939604809197048F5F80939704C2
:10272000809195042091960490E0821B9109019775
:102730008F739927892B51F1E0919604F0E0E35DC6
:10274000FA4F84E019C0833009F581E08093980442
:102750001DC0809195042091960490E0821B910900
:1027600001978F739927892B79F0E0919604F0E017
:102770008091C600E35DFA4F8083809196048F5F5D
:102780008F738093960402C08091C600FF91EF91F1
:102790009F918F913F912F910F900FBE0F901F909F
:1027A00018951F920F920FB60F9211242F938F93AB
:1027B0009F93EF93FF93809194042091930490E072
:1027C000821B91098F739927892B79F0E0919304EB
:1027D000F0E0E359FA4F80818093C6008091930422
:1027E0008F5F8F738093930405C08091C1008F7DAC
:1027F0008093C100FF91EF919F918F912F910F9046
:102800000FBE0F901F90189580919604909195049B
:10281000891B8F730895809196042091950490E010
:10282000821B91098F739927892BC1F0E091950440
:10283000F0E0E35DFA4F8081909195049F5F9F7374
:102840009093950490919904992349F08D3039F42F
:1028500090919704915090939704089580E0089583
:1028600081E080939904809196042091950490E0F2
:10287000821B91098F739927892BB1F0E091950400
:10288000F0E0E35DFA4F8081843071F41092980497
:10289000E0919504F0E0E35DFA4F8081809195042A
:1028A0008F5F8F7380939504809198040895809131
:1028B000970408950FB607FE0EC0209193049091DF
:1028C000940430E0291B3109215031092F7333273B
:1028D000232B99F30DC0209193049091940430E040
:1028E000291B3109215031092F733327232B61F024
:1028F000E0919404F0E0E359FA4F808380919404CE
:102900008F5F8F73809394048091C1008062809365
:10291000C10008951F93CF93DF93EC0180E011E095
:10292000180FFE01E80FF11D8081882321F00E941D
:102930005A14812FF4CFDF91CF911F9108951F93E7
:10294000CF93DF93EC0180E011E0180FFE01E80F58
:10295000F11D8491882321F00E945A14812FF4CF15
:10296000DF91CF911F910895DB018F939F930E9478
:102970004215BF91AF91A29F800D911DA39F900D15
:10298000B29F900D11240895AA1BBB1B51E107C0F3
:10299000AA1FBB1FA617B70710F0A61BB70B881FEF
:1029A000991F5A95A9F780959095BC01CD0108957E
:1029B00097FB072E16F4009407D077FD09D00E94EC
:1029C000C41407FC05D03EF4909581959F4F08955F
:1029D000709561957F4F0895A1E21A2EAA1BBB1B2B
:1029E000FD010DC0AA1FBB1FEE1FFF1FA217B307DB
:1029F000E407F50720F0A21BB30BE40BF50B661FF1
:102A0000771F881F991F1A9469F7609570958095B4
:102A100090959B01AC01BD01CF010895052E97FB58
:102A20001EF400940E94251557FD07D00E94EC1457
:102A300007FC03D04EF40C94251550954095309525
:102A400021953F4F4F4F5F4F08959095809570951A
:102A500061957F4F8F4F9F4F0895EE0FFF1F059099
:102A6000F491E02D0994A29FB001B39FC001A39FF0
:102A7000700D811D1124911DB29F700D811D1124B7
:102A8000911D08950E943315A59F900DB49F900D40
:0E2A9000A49F800D911D11240895F894FFCF8E
:102A9E00030B443100802500002D00040B44300050
:102AAE00802500002D0002060024F400010C617444
:082ABE006D65676133323800D9
:102AC600580041535500FF03FE030000010000C0FB
:102AD600A801640030302F30302F303030302030B5
:102AE600303A30303A303000E5559A15B53B121F72
:102AF6005345523438362050726F6A6563742033FA
:102B0600202D20496E746567726174696F6E0D0AB7
:102B160000594F55524E414D45000D0A00436F6E08
:102B26006E656374696F6E2045737461626C697358
:102B36006865640D0A00436F6E6E656374696F6E37
:102B4600204C6F73740D0A002D002E0020001F1CF0
:102B56001F1E1F1E1F1F1E1F1E1F5345520053619F
:102B66006E647900000000000000446F75676C61B8
:102B76007300000000005F554E41535349474E45D0
:102B8600440000000000444F5553414E5553410048
:102B9600000D0A414C41524D3A200030302F303062
:102BA6002F303030302030303A30303A3030004933
:102BB6004E56414C49440D0A002F200047455420EB
:102BC6000064657669636500202022767064223A87
:102BD6007B0020202020226D6F64656C223A002045
:102BE600202020226D616E75666163747572657250
:102BF600223A00202020202273657269616C5F6E84
:102C0600756D626572223A0020202020226D616E69
:102C160075666163747572655F64617465223A00F6
:102C260020202020226D61635F6164647265737386
:102C3600223A2200222C002020202022636F756E6B
:102C46007472795F636F6465223A00202022746390
:102C56007269745F6869223A002020227477617273
:102C66006E5F6869223A0020202274637269745F7D
:102C76006C6F223A00202022747761726E5F6C6F4F
:102C8600223A0020202274656D7065726174757237
:102C960065223A002020227374617465223A00434B
:102CA6005249545F4849005741524E5F4849004EC9
:102CB6004F524D414C005741524E5F4C4F004352CC
:102CC60049545F4C4F002020226C6F67223A5B000C
:102CD600202020207B002020202020202274696DC7
:102CE600657374616D70223A00226576656E746E46
:102CF600756D223A00202020207D0020205D0050A6
:102D0600555420002F203F006465766963653F00B7
:102D16002F203D0072657365743D002266616C73F9
:102D26006522004F4B41590D0A00227472756522C7
:102D3600006465766963652F00636F6E6669673F39
:102D4600003D200074637269745F68693D007477A2
:102D560061726E5F68693D0074637269745F6C6F5F
:102D66003D00747761726E5F6C6F3D0044454C4563
:082D7600544520006C6F67005A
:00000001FF
