:100000000C9434000C9451000C9451000C94510049
:100010000C9451000C9451000C9451000C9451001C
:100020000C9451000C9451000C9451000C94000954
:100030000C9451000C9451000C94E00A0C94510063
:100040000C9451000C9451000C94890B0C94BA0B35
:100050000C9451000C9451000C94B0010C9451007C
:100060000C9451000C94510011241FBECFEFD8E026
:10007000DEBFCDBF11E0A0E0B1E0E2E2FAE102C0F4
:1000800005900D92A43DB107D9F723E0A4EDB1E0AE
:1000900001C01D92A138B207E1F70E94ED010C9456
:1000A000FB0C0C940000CF93DF9300D0CDB7DEB7EC
:1000B00000000E94A101892BE1F78FE692E09A836C
:1000C000898389819A8142E1BC0180E490E00E94A9
:1000D00054010E94B500892B81F40E94E4008FE650
:1000E00092E09A83898389819A8142E1BC0180E40C
:1000F00090E00E94540110926E0200000F900F9049
:10010000DF91CF910895CF93DF9300D0CDB7DEB7C5
:1001100080916E028130C1F40E94A101892BA1F46B
:1001200062E170E08FE692E00E944B028FE692E07F
:100130009A83898389819A8142E1BC0180E490E0BD
:100140000E94010110926E0200000F900F90DF914B
:10015000CF910895CF93DF93CDB7DEB781E0809341
:100160006E020000DF91CF910895CF93DF9300D00E
:1001700000D0CDB7DEB78DE591E09A8389838FE615
:1001800092E09C838B830DC089819A81FC01208140
:100190008B819C81FC018081281719F080E090E020
:1001A0000CC089819A81FC018081882369F762E112
:1001B00070E08FE692E00E9486020F900F900F9001
:1001C0000F90DF91CF910895CF93DF9300D0CDB7FB
:1001D000DEB762E170E080E091E00E944B0280E0D7
:1001E00091E09A83898389819A8142E1BC0180E40C
:1001F00090E00E94010100000F900F90DF91CF91DD
:100200000895CF93DF93CDB7DEB727970FB6F89455
:10021000DEBF0FBECDBF9C838B837E836D834F83F8
:1002200000000E94A101892BE1F78B819C819093B2
:10023000C3028093C20281E08093C1021092C50282
:100240001A82198213C089819A812D813E81820F81
:10025000931FFC01208189819A818F579D4FFC015A
:10026000208389819A8101969A8389838F81282F9F
:1002700030E089819A81821793072CF38F818093D4
:10028000C4028FE390E02FE330E0F9012081286081
:10029000FC012083000027960FB6F894DEBF0FBE46
:1002A000CDBFDF91CF910895CF93DF93CDB7DEB768
:1002B00027970FB6F894DEBF0FBECDBF9C838B830C
:1002C0007E836D834F8300000E94A101892BE1F79B
:1002D0001A82198224C081E490E02B81FC012083E2
:1002E0008FE390E02FE330E0F90120812160FC01F1
:1002F000208389819A812D813E81820F931F20E482
:1003000030E0F9012081FC0120838B819C810196E2
:100310009C838B8389819A8101969A8389838F81BB
:10032000282F30E089819A8182179307A4F2000078
:1003300027960FB6F894DEBF0FBECDBFDF91CF91E9
:100340000895CF93DF93CDB7DEB79091C10281E0DE
:10035000913009F080E0882F90E0DF91CF910895EF
:100360001F920F920FB60F9211242F938F939F938A
:10037000EF93FF932FB7F8949091C5028091C40238
:100380009817F0F4F999FECF8091C20281BDE091F7
:10039000C502F0E0EF57FD4F808180BDFA9AF99ACF
:1003A0008091C2029091C30201969093C302809300
:1003B000C2028091C5028F5F8093C5022FBF03C028
:1003C000FB981092C102FF91EF919F918F912F9115
:1003D0000F900FBE0F901F901895CF93DF931F9231
:1003E000CDB7DEB70E944C090E9453000E94A903BA
:1003F0000E94DB030E94A1050E94BC02198281E6D3
:1004000091E00E943D0389E691E00E94D0058DE7CE
:1004100091E00E9452098AEC92E00E94520985EA1A
:1004200091E00E94520986ED92E00E94520985EA0D
:1004300091E00E94520986EC92E00E94520985EAFE
:1004400091E00E94520981E080937F020E94AA00FD
:100450000E9427058AEA0E94D6048BEB0E94D604EC
:100460008CEC0E94D6040E94A0040E944F030E94BC
:10047000A0040E9483000E94A101892BB1F7898109
:10048000882399F760E071E080E090E00E94160A0E
:1004900081E08983EACFCF93DF9300D000D000D0F2
:1004A000CDB7DEB79C838B837E836D831A821982DE
:1004B0000FC08981882F90E02B813C81820F931F90
:1004C000FC0180819A81890F8A8389818F5F89836A
:1004D0008981282F30E08D819E8101972817390767
:1004E00040F38D819E8101972B813C81820F931F68
:1004F0002A812195FC012083000026960FB6F894EE
:10050000DEBF0FBECDBFDF91CF910895CF93DF93B4
:1005100000D000D000D0CDB7DEB79C838B837E8324
:100520006D831A8219820FC08981882F90E02B81F8
:100530003C81820F931FFC0180819A81890F8A83FD
:1005400089818F5F89838981282F30E08D819E8109
:1005500001972817390740F381E09A81992309F020
:1005600080E0882F90E026960FB6F894DEBF0FBE8D
:10057000CDBFDF91CF910895CF93DF9300D0CDB75A
:10058000DEB700000E94A101892BE1F786EC92E022
:100590009A83898389819A8147E3BC0180E090E056
:1005A0000E9454010E94EA02892B71F40E942003E8
:1005B00086EC92E09A83898389819A8147E3BC0122
:1005C00080E090E00E94540100000F900F90DF91B6
:1005D000CF910895CF93DF9300D000D0CDB7DEB791
:1005E00088EA91E09C838B831A82198218C08981E2
:1005F0009A812B813C81820F931FFC01208189818C
:100600009A818A539D4FFC018081281719F080E060
:1006100090E00FC089819A8101969A8389838981AC
:100620009A81039724F367E370E086EC92E00E94DE
:1006300086020F900F900F900F90DF91CF91089549
:10064000CF93DF9300D0CDB7DEB767E370E082E1F0
:1006500091E00E944B0282E191E09A838983898133
:100660009A8147E3BC0180E090E00E940101000014
:100670000F900F90DF91CF9108959093D5018093C3
:10068000D4011092D8011092D7011092D60160E0E7
:1006900070E080E090E00E944C0B0C94AE038091DF
:1006A000D4019091D501892B09F452C080E090E0EB
:1006B0000E94330B892B09F44BC08091D601811124
:1006C00034C02091D7013091D801E091D401F0914C
:1006D000D501E20FF31F80818032E9F03CF48111F3
:1006E0001DC01092D8011092D70108958D3239F0B3
:1006F0008E32A1F40E94AC036AEF70E004C00E9445
:10070000AC036EEE72E080E090E00E944C0B81E062
:100710008093D601089568EE73E00BC02F5F3F4FC2
:100720003093D8012093D70108950E94AE0364E668
:1007300070E080E090E00E944C0B1092D601809116
:10074000D7019091D80101969093D8018093D70159
:100750000895219A29980895299A08952998089525
:1007600085B18695817090E008958031910504F5FA
:1007700027E0289FA001299F500D1124FA01E4527F
:10078000FE4F80818132A0F480E090E020E0FA0109
:10079000E80FF91FE452FE4F3081230F0196873096
:1007A0009105A9F781E090E0222321F080E00895EF
:1007B00080E090E008956F927F928F929F92AF9227
:1007C000BF92CF92DF92EF92FF920F931F93CF933E
:1007D000DF930E94A101892BE1F70CE412E0C0E84D
:1007E000D0E0BE01645A7E4F47E0CE010E94540122
:1007F000F80111928F012796C03FD10591F74CED7A
:10080000E42E41E0F42E8701C0E0D0E0D12CB12CE1
:1008100077247A94CE010E94B503892B41F0F80128
:100820008081871520F4BC2E782EDD24D394219668
:10083000095F1F4FC031D10569F7DD2009F46AC097
:10084000B092DB017092DA01CB2DD0E08E010F5F08
:100850001F4F872C2FE0A22E37E0932E6801FFE078
:10086000CF22DD24C6010E94B503892B61F4B0922A
:10087000D9018E0101501109609780E1A82EB12C99
:1008800097E0692E3AC09C9CF0019D9CF00D1124CC
:10089000E452FE4F4081242F30E0882D90E00196F5
:1008A0008F7199272817390711F7C092DB01409300
:1008B000DA01AA940F5F1F4FAA20C9F2842ECECF6F
:1008C000F701208130E0872D90E04F968F719927B6
:1008D0002817390731F5C092D901689CF001699C4D
:1008E000F00D1124E452FE4F708001501109F7E021
:1008F000EF0EF11C0C171D07A1F0C801B5010E94F5
:100900008C0C6C014C019924C4010E94B503892B05
:10091000B9F607C08FE08093DB011092DA011092E4
:10092000D901DF91CF911F910F91FF90EF90DF9050
:10093000CF90BF90AF909F908F907F906F900895D1
:10094000EF92FF921F93CF93DF930E94A101892B17
:1009500039F5ECE4F2E0C0E0D0E081918823E1F0E9
:1009600017E01C9FC0011D9F900D11249C01245273
:100970003E4F790167E070E0C9010E944B02C19FC0
:10098000C001112447E0B70180589F4F0E94010128
:10099000C45BDD4F188204C02196C031D105E9F651
:1009A000DF91CF911F91FF90EF900895EF92FF920A
:1009B0000F931F93CF93DF93E82EC091DB01D0E01C
:1009C0002196CF70DD278091D90190E00E94B50378
:1009D000F82E8091DA018F5F813218F48093DA016A
:1009E00002C01092DA0187E08C9F80018D9F100D6C
:1009F000112404521E4F8091DA01F80180830E9475
:100A0000A305F8016183728383839483E582C09395
:100A1000DB0167E070E0C8010E944B02C45BDD4F60
:100A200081E088838091DB019091D901891308C00E
:100A3000FF2031F090E001968F7099278093D901C3
:100A4000DF91CF911F910F91FF90EF900895ECED02
:100A5000F1E0ACE4B2E08FEF4FEF5FEFBA0191E06D
:100A60008083858341835283638374839D93379608
:100A700022E0EC34F207A1F78FE08093DB011092C3
:100A8000D9011092DA0108950F931F93CF93DF934A
:100A90000091D901C02F10E0D0E0CE010E94B50333
:100AA000892B29F02196CF701F5F0C13F5CF812F72
:100AB000DF91CF911F910F910895AF92BF92CF9286
:100AC000DF92EF92FF920F931F93CF93DF936B010F
:100AD0007C018A0159010E94440590E0A0E0B0E049
:100AE000C816D906EA06FB06F8F48091D90190E011
:100AF000C80ED91E8FE0C822DD2487E08C9DF0014E
:100B00008D9DF00D1124E452FE4F81819281A381CD
:100B1000B481E80188839983AA83BB838581F50129
:100B2000808381E090E002C080E090E0DF91CF918F
:100B30001F910F91FF90EF90DF90CF90BF90AF90FB
:100B400008950C9425090F931F930E943409009176
:100B5000FD021091FE022091FF0230910003600F10
:100B6000711F821F931F1F910F9108959C0160E9CF
:100B700071E00E94780C892B79F0C9018370992764
:100B8000892B61F4C90164E670E00E94780C9C0135
:100B900081E0232B21F402C081E0089580E00895D4
:100BA0002F923F924F925F926F927F928F929F927D
:100BB000AF92BF92CF92DF92EF92FF920F931F936B
:100BC000CF93DF93CDB7DEB767970FB6F894DEBF4C
:100BD0000FBECDBF2CE0ECEAF1E0AE014F5F5F4FFE
:100BE0001A01DA0101900D922A95E1F7DC012C91AE
:100BF000220F2056322F330F330F230F11963C91C3
:100C000011973153230F2D8713962C911397022E92
:100C1000000C330B205331096AE0629FA001639FEF
:100C2000500D11241496CC900C2C000CDD08B0E370
:100C3000CB1AD108C40ED51E860101501109FC0142
:100C40002681022E000C330B20533109E8EEF3E02D
:100C50002E9FA0012F9F500D3E9F500D1124DC01AF
:100C600017962C911797022E000C330B2053310945
:100C700074E6729F7001739FF00C1124E40EF51E50
:100C800018964C911897042E000C550B405351099F
:100C9000649F9001659F300D1124E20EF31E19969A
:100CA0002C911997F701E20FF11D27FDFA95AF017D
:100CB00058507A011B962C911B97220F2056322FE9
:100CC000330F330F230F1C963C911C973053230F87
:100CD000298B1E962C911E97220F2056322F330FF0
:100CE000330F230F1F963C911F973053230F2A8BEE
:100CF00051962C915197220F2056322F330F330FDC
:100D0000230F52968C918053280F2B8BCA010E947F
:100D1000B605882321F05D85523008F08601C701B1
:100D200060E971E00E94780CFC01DB0120E839E504
:100D300040E650EF0E94F00C2B013C01CF0164E62D
:100D400070E00E94780CFC01DB0120E032EC47E10E
:100D50005CEB0E94F00C4B015C01DF01B695A7959E
:100D6000B695A79520E83FE146E857E00E94F00CD1
:100D70006B017C01DF01A370BB2720E833E341EE68
:100D800051E00E94F00C6C8B7D8B8E8B9F8BF10160
:100D90008E2F82199D85891720F48191080F111DCE
:100DA000F7CFA9892A2F30E0A0E1BEE00E94E10C34
:100DB0006D877E878F87988BBA892B2F30E0ACE3C5
:100DC000B0E00E94E10C2D853E854F855889260FA5
:100DD000371F481F591FDA01C9013B89830F911D35
:100DE000A11DB11D480E591E6A1E7B1E840C951C48
:100DF000A61CB71CC80CD91CEA1CFB1C8C899D893D
:100E0000AE89BF89C80ED91EEA1EFB1ED80120E894
:100E100031E541E050E00E94F00CDC01CB018C0D8B
:100E20009D1DAE1DBF1D8093FD029093FE02A093F9
:100E3000FF02B093000367960FB6F894DEBF0FBEB3
:100E4000CDBFDF91CF911F910F91FF90EF90DF9079
:100E5000CF90BF90AF909F908F907F906F905F905A
:100E60004F903F902F900C944009EF92FF920F9378
:100E70001F93CF93DF93CDB7DEB768970FB6F89483
:100E8000DEBF0FBECDBF7B012CE0ECEAF1E0DE015E
:100E90001D9601900D922A95E1F78E010F5F1F4F6D
:100EA0002CE0F80111922A95E9F70E94B6058A8391
:100EB000DE011D9680E0F701408151819D91F8018E
:100EC00021918F0130E0290F311D4217530740F067
:100ED000421B530BF701518340838F5F8C3059F7CE
:100EE00068960FB6F894DEBF0FBECDBFDF91CF91ED
:100EF0001F910F91FF90EF9008954F925F926F9224
:100F00007F928F929F92AF92BF92CF92DF92EF9299
:100F1000FF92CF93DF9300D0CDB7DEB72B013C011A
:100F200081E090E0A0E0B0E020E8421629E552061A
:100F300020E6620620EF720618F480E090E0DC0103
:100F400020E931E0829F5001839FB00C929FB00C4A
:100F5000112480E3A81A88EFB80AC12CD12C76019D
:100F6000C39420E8421629E5520620E6620620EFE7
:100F7000720618F4C12CD12C7601A701960160E805
:100F800079E580E690EF0E94680C73016201C61A51
:100F9000D70AE80AF90A81E090E0A0E0B0E0C114C5
:100FA00022ECD20627E1E2062CEBF20618F480E0F0
:100FB00090E0DC0144E6489F9001499F300D1124E8
:100FC000A20EB31E21E030E040E050E0C11482ECFC
:100FD000D80687E1E8068CEBF80618F420E030E04C
:100FE000A90160E072EC87E19CEB0E94680CA7010C
:100FF0009601261B370B480B590BCA01B90120E893
:101000003FE146E857E00E94A00C220F331F220F59
:10101000331FA20EB31E20E833E341EE51E00E94DD
:10102000A00C7501E20EF31E20E831E541E050E02E
:101030000E94A00C4B015C013A832983BE016F5FC3
:101040007F4FC7010E943507D82EC501B40120E1AA
:101050003EE040E050E00E94A00C29013A014B0123
:101060005C0168EB71E089E491E00E9494086D2DC9
:1010700070E06F5F7F4F42E089E491E00E949E083C
:1010800069817A816F5F7F4F42E08CE491E00E943A
:101090009E0844E0B7018FE491E00E949E0842E080
:1010A000B20184E591E00E949E08C501B4012CE3E1
:1010B00030E040E050E00E94A00C49015A016B0171
:1010C0007C0142E0B40187E591E00E949E0842E085
:1010D000B6018AE591E00E949E0889E491E00F90B4
:1010E0000F90DF91CF91FF90EF90DF90CF90BF9066
:1010F000AF909F908F907F906F905F904F900895EA
:101100000F931F930E9434090091FD021091FE027B
:101110002091FF0230910003600F711F821F931F07
:101120001F910F910C947D07FC01DB018D91BD0196
:10113000882311F08193F9CF108208959F92AF9286
:10114000BF92CF92DF92EF92FF920F931F93CF93B4
:10115000DF9300D000D01F92CDB7DEB7FC016B014A
:101160009E012F5F3F4F8E010A5F1F4FEE24E394D5
:10117000F12C9AE0992E9E9C50019F9CB00C11245A
:10118000C601B5010E94780CB7010E94780CD90104
:101190006D939D01C61AD10867FDD3947501A01700
:1011A000B10749F760E070E084E090E050E0D801DA
:1011B0002E918D01211105C06115710511F4009763
:1011C00041F4841795072CF4205D219361E070E0D1
:1011D00004C0841795070CF43196019740F70F90DF
:1011E0000F900F900F900F90DF91CF911F910F9163
:1011F000FF90EF90DF90CF90BF90AF909F900895B9
:101200001F920F920FB60F9211248F939F93AF935B
:10121000BF9380915C0290915D02A0915E02B091BB
:101220005F020196A11DB11D80935C0290935D0247
:10123000A0935E02B0935F02BF91AF919F918F9197
:101240000F900FBE0F901F90189583E294EF90932C
:10125000890080938800109280008CE08093810048
:1012600082E080936F0008952FB7F89460915C023C
:1012700070915D0280915E0290915F022FBF089590
:101280008FB7F89410925C0210925D0210925E0289
:1012900010925F028FBF08950E94760B7894089594
:1012A0000C940E0CCF93DF93EC018991882319F0F5
:1012B0000E940E0CFACFDF91CF910895CF93C82FE3
:1012C00090E024E0959587952A95E1F78A3010F40F
:1012D000805D01C0895C0E940E0C8C2F8F708A305B
:1012E00010F0895C01C0805DCF910C940E0CCF93FF
:1012F000C82F892F0E945E098C2FCF910C945E0914
:101300002F923F924F925F926F927F928F929F9215
:10131000AF92BF92CF92DF92EF92FF920F931F9303
:10132000CF93DF93CDB7DEB763970FB6F894DEBFE8
:101330000FBECDBF6B017C0197FF0DC0F094E09410
:10134000D094C094C11CD11CE11CF11C81E090E040
:101350009B8B8A8B02C01B8A1A8AFE0131965F0121
:101360008E01055F1F4FF98BE88B66246394712C07
:10137000812C912CAAE0B0E09301A4010E94F00C12
:101380001B012C01C701B6019101A2010E94C20CF0
:101390009301A4010E94C20CE889F9892193F98B79
:1013A000E88B822F220F990BAA0BBB0BC81AD90A04
:1013B000EA0AFB0A310142010E171F07D9F68A8992
:1013C0009B89892B11F08DE201C080E20E940E0CF6
:1013D00020E030E0F80182918F01811106C02115D3
:1013E000310519F4EA15FB0529F4805D0E940E0C05
:1013F00021E030E00A151B0569F763960FB6F894F3
:10140000DEBF0FBECDBFDF91CF911F910F91FF9037
:10141000EF90DF90CF90BF90AF909F908F907F9094
:101420006F905F904F903F902F9008952F923F9232
:101430004F925F926F927F928F929F92AF92BF92E4
:10144000CF92DF92EF92FF920F931F93CF93DF9390
:10145000CDB7DEB764970FB6F894DEBF0FBECDBF31
:101460008C016115710509F492C0812C912C5401F5
:10147000CB01A0E0B0E0898B9A8BAB8BBC8BDE01FB
:1014800011961D0189899A89AB89BC8988169906AC
:10149000AA06BB0608F07BC0812F0E945E09802F40
:1014A000807F0E945E0980E20E94500961017801FC
:1014B000412C512C320141E0B601C7010E94540178
:1014C000BFEFEB1AFB0AEFEF4E1A5E0A6E0A7E0AB6
:1014D000FFEF8F1A9F0AAF0ABF0A89899A89AB89E1
:1014E000BC8988169906AA06BB0650F068019FE0E1
:1014F000C922DD2400E010E032016C0C7D1C09C023
:10150000AFEFCA1ADA0AC7018F709927892B99F6AB
:10151000EDCF0C151D0518F00615170528F08CECFD
:1015200091E00E9452090BC0F801EC19FD09E20D8F
:10153000F31D80810E945E0980E20E9450090F5FC6
:101540001F4F0031110529F700E010E0C016D10649
:1015500031F080E20E9450090F5F1F4FF7CF8101E9
:10156000C801821993098415950558F4F8018191F1
:101570008F0190EE980F903608F08EE20E9450098D
:10158000EFCF80ED91E00E94520987017BCF6496F6
:101590000FB6F894DEBF0FBECDBFDF91CF911F9184
:1015A0000F91FF90EF90DF90CF90BF90AF909F9002
:1015B0008F907F906F905F904F903F902F90089505
:1015C0001F920F920FB60F9211242F933F938F9378
:1015D0009F93209166023091670280916202909100
:1015E00063022817390749F08091660290916702DB
:1015F0000196909367028093660220916802309171
:10160000690280916402909165022817390749F0B8
:10161000809168029091690201969093690280938B
:1016200068029F918F913F912F910F900FBE0F9065
:101630001F90189589EF87BD82E084BD93E095BD2A
:1016400080936E0008958230910550F4F894880FCD
:10165000991FFC01EA59FD4F80819181789408958A
:1016600080E090E008958230910598F4880F991FEA
:10167000FC01EA59FD4F20813181FC01EE59FD4FFB
:1016800081E090E0408151814217530721F080E0D2
:10169000089580E090E008950F931F93CF93DF9318
:1016A000EC018B018091600290916102892B41F4E1
:1016B0000E941A0B81E090E0909361028093600297
:1016C000C230D10570F48FB7F894CC0FDD1FFE0146
:1016D000EE59FD4F11830083CA59DD4F19821882DC
:1016E0008FBFDF91CF911F910F9108951092C0008D
:1016F00087E690E09093C5008093C400E1ECF0E0B1
:1017000088E1808386E08093C2008081806A808344
:1017100008951F920F920FB60F9211242F938F935B
:101720009F93EF93FF9380916C0220916D0290E064
:10173000821B910901978F739927892B79F0E0918A
:101740006D02F0E08091C600EF5FFC4F80838091D6
:101750006D028F5F8F7380936D0202C08091C6000F
:10176000FF91EF919F918F912F910F900FBE0F904E
:101770001F9018951F920F920FB60F9211242F935E
:101780008F939F93EF93FF9380916B0220916A0256
:1017900090E0821B91098F739927892B79F0E09152
:1017A0006A02F0E0EF5BFC4F80818093C60080917D
:1017B0006A028F5F8F7380936A0205C08091C100B7
:1017C0008F7D8093C100FF91EF919F918F912F9119
:1017D0000F900FBE0F901F90189580916D02909101
:1017E0006C02891B8F73089580916D0220916C02A9
:1017F00090E0821B91098F739927892B69F0E09102
:101800006C02F0E0EF5FFC4F808190916C029F5F73
:101810009F7390936C02089580E008950FB607FEC1
:101820000EC020916A0290916B0230E0291B3109B1
:10183000215031092F733327232B99F30DC02091A9
:101840006A0290916B0230E0291B31092150310965
:101850002F733327232B61F0E0916B02F0E0EF5BF5
:10186000FC4F808380916B028F5F8F7380936B023C
:101870008091C10080628093C10008951F93CF932F
:10188000DF93EC0180E011E0180FFE01E80FF11D7D
:101890008081882321F00E940E0C812FF4CFDF91EC
:1018A000CF911F9108951F93CF93DF93EC0180E0B8
:1018B00011E0180FFE01E80FF11D8491882321F03B
:1018C0000E940E0C812FF4CFDF91CF911F910895CC
:1018D000DB018F939F930E94F00CBF91AF91A29F69
:1018E000800D911DA39F900DB29F900D112408951E
:1018F000AA1BBB1B51E107C0AA1FBB1FA617B70736
:1019000010F0A61BB70B881F991F5A95A9F7809551
:101910009095BC01CD01089597FB072E16F4009415
:1019200007D077FD09D00E94780C07FC05D03EF463
:10193000909581959F4F0895709561957F4F08957B
:10194000A1E21A2EAA1BBB1BFD010DC0AA1FBB1FC3
:10195000EE1FFF1FA217B307E407F50720F0A21B35
:10196000B30BE40BF50B661F771F881F991F1A94A2
:1019700069F760957095809590959B01AC01BD01CC
:10198000CF010895052E97FB1EF400940E94D90CF8
:1019900057FD07D00E94A00C07FC03D04EF40C9416
:1019A000D90C50954095309521953F4F4F4F5F4F43
:1019B000089590958095709561957F4F8F4F9F4FBB
:1019C0000895A29FB001B39FC001A39F700D811D18
:1019D0001124911DB29F700D811D1124911D089538
:1019E0000E94E10CA59F900DB49F900DA49F800DC7
:0A19F000911D11240895F894FFCF13
:1019FA00030B443100802500002D00040B44300005
:101A0A00802500002D0002060024F400010C6174F8
:081A1A006D656761333238008D
:101A220041535500FF03FE0301000000C0A80164FA
:101A32000000534552004E617468616E69656C0026
:101A42000000427279616E74000000000000424C96
:101A520033000000000000000000000000004E41C2
:101A620054425259555341000030302F30302F30FC
:101A72003030302030303A30303A30300041535537
:101A8200002D2D2D202D2E2D0030312F30312F32D3
:101A92003031392030303A30303A3030005345520C
:101AA200203438362050726F6A6563742032202DDC
:101AB200204E617468616E69656C20427279616E54
:101AC20074200A0D000A0D00534552001F1C1F1EF0
:101AD2001F1E1F1F1E1F1E1F30302F30302F303091
:101AE20030302030303A30303A3030002020200080
:041AF2000D0A0000D9
:00000001FF
