:100000000C9434000C943E000C943E000C943E0082
:100010000C943E000C943E000C943E000C943E0068
:100020000C943E000C943E000C943E000C943E0058
:100030000C943E000C943E000C943E000C943E0048
:100040000C943E000C943E000C943E000C943E0038
:100050000C943E000C943E000C943E000C943E0028
:100060000C943E000C943E0011241FBECFEFD8E04C
:10007000DEBFCDBF0E945F000C948C000C9400008A
:10008000CF93DF9300D000D0CDB7DEB79C838B83B6
:100090001A82198205C089819A8101969A8389837F
:1000A00029813A818B819C8128173907A0F30000B0
:1000B0000F900F900F900F90DF91CF910895CF93F5
:1000C000DF9300D0CDB7DEB780E69AEE9A838983BE
:1000D00084E290E024E230E0F90120812260FC011A
:1000E000208385E290E025E230E0F9012081226062
:1000F000FC01208389819A810E94400085E290E082
:1001000025E230E0F90120812D7FFC0120838981E7
:0C0110009A810E944000E5CFF894FFCFD8
:00000001FF
