:100000000C9434000C9451000C9451000C94510049
:100010000C9451000C9451000C9451000C9451001C
:100020000C9451000C9451000C9451000C9451000C
:100030000C9451000C9451000C9451000C945100FC
:100040000C9451000C9451000C94E3000C94140196
:100050000C9451000C9451000C9451000C945100DC
:100060000C9451000C94510011241FBECFEFD8E026
:10007000DEBFCDBF11E0A0E0B1E0E6EEF3E002C0EC
:1000800005900D92A832B107D9F721E0A8E2B1E0BE
:1000900001C01D92AC3AB207E1F70E94C2010C9474
:1000A000DD010C940000CF93DF9300D000D0CDB7DA
:1000B000DEB71C821B822B813C8128173907A8F4EC
:1000C0001A82198229813A81283E334038F42981E5
:1000D0003A812F5F3F4F3A832983F4CF2B813C81B4
:1000E0002F5F3F4F3C832B83E6CF0F900F900F90F5
:1000F0000F90DF91CF910895CF93DF93EC01899119
:10010000882319F00E94CE00FACFDF91CF91089595
:100110008930910514F4C0960895C7960895CF9339
:10012000C82F82958F7090E00E9488000E94CE00B8
:100130008C2F8F7090E00E948800CF910C94CE009D
:10014000CF93C82F892F0E948F008C2FCF910C94B2
:100150008F00CF93DF93EC0189918823C1F08E3219
:1001600021F4299A8AEF90E005C08D3249F4299A4A
:100170008EEE92E00E945300299884E690E004C03D
:10018000803251F788EE93E00E945300E5CFDF9173
:10019000CF9108950E94D000789408950C9468013E
:1001A0001092C00087E690E09093C5008093C40051
:1001B000E1ECF0E088E1808386E08093C2008081FA
:1001C000806A808308951F920F920FB60F921124B8
:1001D0002F938F939F93EF93FF9380912A01209108
:1001E0002B0190E0821B910901978F739927892B2E
:1001F00079F0E0912B01F0E08091C600E45DFE4FC4
:10020000808380912B018F5F8F7380932B0102C0BD
:100210008091C600FF91EF919F918F912F910F9048
:100220000FBE0F901F9018951F920F920FB60F924E
:1002300011242F938F939F93EF93FF938091290124
:100240002091280190E0821B91098F739927892BB7
:1002500079F0E0912801F0E0E459FE4F808180932D
:10026000C600809128018F5F8F738093280105C09D
:100270008091C1008F7D8093C100FF91EF919F918C
:100280008F912F910F900FBE0F901F901895809116
:100290002B0190912A01891B8F73089580912B0166
:1002A00020912A0190E0821B91098F739927892B55
:1002B00069F0E0912A01F0E0E45DFE4F80819091C9
:1002C0002A019F5F9F7390932A01089580E008950B
:1002D0000FB607FE0EC0209128019091290130E051
:1002E000291B3109215031092F733327232B99F30F
:1002F0000DC0209128019091290130E0291B31097E
:10030000215031092F733327232B61F0E09129010C
:10031000F0E0E459FE4F8083809129018F5F8F7355
:10032000809329018091C10080628093C10008956B
:100330001F93CF93DF93EC0180E011E0180FFE01D3
:10034000E80FF11D8081882321F00E946801812F30
:10035000F4CFDF91CF911F9108951F93CF93DF9337
:10036000EC0180E011E0180FFE01E80FF11D84910F
:10037000882321F00E946801812FF4CFDF91CF9173
:100380001F9108950E94CA00219A80E091E00E9486
:100390007C008AE00E948F008CE191E00E947C004A
:1003A0008EED90EC0E94A0008CE191E00E947C0018
:0E03B0008FE191E00E94A900FBCFF894FFCFEF
:1003BE00030B443100802500002D00040B44300057
:1003CE00802500002D0002060024F400010C61744B
:0803DE006D65676133323800E0
:1003E6005345522D34383620485733204E617468B1
:1003F600616E69656C20427279616E740A0D002D1A
:080406002D2D202D2E2D0000EC
:00000001FF
