:100000000C9434000C9451000C9451000C94510049
:100010000C9451000C9451000C9451000C9451001C
:100020000C9451000C9451000C9451000C94460710
:100030000C9451000C9451000C9426090C9451001E
:100040000C9451000C9451000C94CF090C94000AAC
:100050000C9451000C9451000C94DC000C94510051
:100060000C9451000C94510011241FBECFEFD8E026
:10007000DEBFCDBF11E0A0E0B1E0EAE5F7E102C0EC
:1000800005900D92A83CB107D9F723E0A8ECB1E0A8
:1000900001C01D92A537B207E1F70E94AE0A0C9489
:1000A000970B0C94000080916202813099F40E94B9
:1000B000D300892B79F462E170E083E692E00E943C
:1000C000190142E163E672E080E490E00E949F0043
:1000D00010926202089581E08093620208958091F7
:1000E0006302813409F4FFCF80E090E0089562E17B
:1000F00070E080E091E00E94190142E160E071E06F
:1001000080E490E00C949F000E94D300892BE1F7DB
:1001100042E163E672E080E490E00E94BE000E944B
:100120006F00892B59F40E94770042E163E672E088
:1001300080E490E00E94BE00109262020895209137
:10014000B5022130E1F39093B7028093B60281E0CB
:100150008093B5021092B902FB01A5E7B2E0242F0B
:1001600030E0CD0185579240821793071CF48191AE
:100170008D93F7CF4093B802FB9A08959091B50202
:100180009130E1F3FB0120E030E050E02417350727
:100190004CF4982F920F91BDF89A90B591932F5FE0
:1001A0003F4FF4CF08952091B50281E090E02130D7
:1001B00011F080E090E008951F920F920FB60F9219
:1001C00011242F938F939F93EF93FF932FB7F8945E
:1001D0009091B9028091B8029817F0F4F999FECF86
:1001E0008091B60281BDE091B902F0E0EB58FD4F7D
:1001F000808180BDFA9AF99A8091B6029091B702F7
:1002000001969093B7028093B6028091B9028F5FF6
:100210008093B9022FBF03C0FB981092B502FF91E3
:10022000EF919F918F912F910F900FBE0F901F9084
:100230001895FC0190E040E061507109242F30E0F6
:100240002617370738F4DF01A20FB31F8C91980FE0
:100250004F5FF4CFE60FF71F919590830895FC014F
:1002600090E040E061507109242F30E026173707F5
:1002700038F4DF01A20FB31F8C91980F4F5FF4CFBA
:1002800021E030E0992311F020E030E0C901089529
:100290008091BA02833571F48091BB02853451F4A8
:1002A0008091BC02823531F467E370E08AEB92E022
:1002B0000C942F0180E090E0089567E370E082E104
:1002C00091E00E94190147E362E171E080E090E073
:1002D0000C949F000E94D300892BE1F747E36AEB5F
:1002E00072E080E090E00E94BE000E944801892BED
:1002F00049F40E945D0147E36AEB72E080E090E020
:100300000C94BE0008959093C9018093C801109287
:10031000CC011092CB011092CA0160E070E080E045
:1003200090E00E9492090C94F4018091C801909190
:10033000C901892B09F452C080E090E00E9479093C
:10034000892B09F44BC08091CA01811134C02091DE
:10035000CB013091CC01E091C801F091C901E20FCD
:10036000F31F80818032E9F03CF481111DC01092AE
:10037000CC011092CB0108958D3239F08E32A1F468
:100380000E94F2016AEF70E004C00E94F2016EEE7A
:1003900072E080E090E00E94920981E08093CA01BF
:1003A000089568EE73E00BC02F5F3F4F3093CC0190
:1003B0002093CB0108950E94F40164E670E080E090
:1003C00090E00E9492091092CA018091CB01909115
:1003D000CC0101969093CC018093CB010895219A92
:1003E00029980895299A08952998089585B18695A0
:1003F000817090E008958031910504F527E0289FF1
:10040000A001299F500D1124FA01E053FE4F808175
:100410008132A0F480E090E020E0FA01E80FF91FBB
:10042000E053FE4F3081230F019687309105A9F7E5
:1004300081E090E0222321F080E0089580E090E0C8
:1004400008956F927F928F929F92AF92BF92CF92B8
:10045000DF92EF92FF920F931F93CF93DF930E944F
:10046000D300892BE1F700E412E0C0E8D0E0BE0140
:10047000605B7E4F47E0CE010E94BE00F801119202
:100480008F012796C03FD10591F740EDE42E41E062
:10049000F42E8701C0E0D0E0D12CB12C77247A94DF
:1004A000CE010E94FB01892B41F0F8018081871564
:1004B00020F4BC2E782EDD24D3942196095F1F4FA3
:1004C000C031D10569F7DD2009F46AC0B092CF01CF
:1004D0007092CE01CB2DD0E08E010F5F1F4F872C85
:1004E0002FE0A22E37E0932E6801FFE0CF22DD241B
:1004F000C6010E94FB01892B61F4B092CD018E01EF
:1005000001501109609780E1A82EB12C97E0692E67
:100510003AC09C9CF0019D9CF00D1124E053FE4FCD
:100520004081242F30E0882D90E001968F7199272B
:100530002817390711F7C092CF014093CE01AA9432
:100540000F5F1F4FAA20C9F2842ECECFF701208162
:1005500030E0872D90E04F968F7199272817390743
:1005600031F5C092CD01689CF001699CF00D112419
:10057000E053FE4F708001501109F7E0EF0EF11CBF
:100580000C171D07A1F0C801B5010E94280B6C01D2
:100590004C019924C4010E94FB01892BB9F607C0C4
:1005A0008FE08093CF011092CE011092CD01DF91A8
:1005B000CF911F910F91FF90EF90DF90CF90BF9060
:1005C000AF909F908F907F906F900895EF92FF92E1
:1005D0001F93CF93DF930E94D300892B39F5E0E47A
:1005E000F2E0C0E0D0E081918823E1F017E01C9FA9
:1005F000C0011D9F900D11249C0120533E4F790195
:1006000067E070E0C9010E941901C19FC001112477
:1006100047E0B70180589F4F0E949F00C05CDD4FAC
:10062000188204C02196C031D105E9F6DF91CF913F
:100630001F91FF90EF900895EF92FF920F931F93F9
:10064000CF93DF93E82EC091CF01D0E02196CF70F9
:10065000DD278091CD0190E00E94FB01F82E809172
:10066000CE018F5F813218F48093CE0102C01092C8
:10067000CE0187E08C9F80018D9F100D11240053C7
:100680001E4F8091CE01F80180830E94E903F8019A
:100690006183728383839483E582C093CF0167E093
:1006A00070E0C8010E941901C05CDD4F81E08883C1
:1006B0008091CF019091CD01891308C0FF2031F0C6
:1006C00090E001968F7099278093CD01DF91CF91B3
:1006D0001F910F91FF90EF900895E0EDF1E0A0E4FD
:1006E000B2E08FEF4FEF5FEFBA0191E08083858337
:1006F00041835283638374839D93379622E0E03471
:10070000F207A1F78FE08093CF011092CD011092F4
:10071000CE0108950F931F93CF93DF930091CD01E6
:10072000C02F10E0D0E0CE010E94FB01892B29F000
:100730002196CF701F5F0C13F5CF812FDF91CF91E2
:100740001F910F910895AF92BF92CF92DF92EF92D7
:10075000FF920F931F93CF93DF936B017C018A016C
:1007600059010E948A0390E0A0E0B0E0C816D906C3
:10077000EA06FB06F8F48091CD0190E0C80ED91E80
:100780008FE0C822DD2487E08C9DF0018D9DF00D67
:100790001124E053FE4F81819281A381B481E8014D
:1007A00088839983AA83BB838581F501808381E057
:1007B00090E002C080E090E0DF91CF911F910F9117
:1007C000FF90EF90DF90CF90BF90AF9008950C9482
:1007D0006B070F931F930E947A070091F10210910B
:1007E000F2022091F3023091F402600F711F821F18
:1007F000931F1F910F9108959C0160E971E00E9481
:10080000140B892B79F0C90183709927892B61F426
:10081000C90164E670E00E94140B9C0181E0232B67
:1008200021F402C081E0089580E008952F923F9264
:100830004F925F926F927F928F929F92AF92BF92F0
:10084000CF92DF92EF92FF920F931F93CF93DF939C
:10085000CDB7DEB767970FB6F894DEBF0FBECDBF3A
:100860002CE0EDE5F1E0AE014F5F5F4F1A01DA01D8
:1008700001900D922A95E1F7DC012C91220F205670
:10088000322F330F330F230F11963C9111973153B1
:10089000230F2D8713962C911397022E000C330BE8
:1008A000205331096AE0629FA001639F500D11241B
:1008B0001496CC900C2C000CDD08B0E3CB1AD108B8
:1008C000C40ED51E860101501109FC012681022E9D
:1008D000000C330B20533109E8EEF3E02E9FA0010A
:1008E0002F9F500D3E9F500D1124DC0117962C9127
:1008F0001797022E000C330B2053310974E6729FB8
:100900007001739FF00C1124E40EF51E18964C91A3
:100910001897042E000C550B40535109649F900109
:10092000659F300D1124E20EF31E19962C91199734
:10093000F701E20FF11D27FDFA95AF0158507A013A
:100940001B962C911B97220F2056322F330F330FFB
:10095000230F1C963C911C973053230F298B1E9616
:100960002C911E97220F2056322F330F330F230F57
:100970001F963C911F973053230F2A8B51962C9131
:100980005197220F2056322F330F330F230F5296D9
:100990008C918053280F2B8BCA010E94FC03882363
:1009A00021F05D85523008F08601C70160E971E0F1
:1009B0000E94140BFC01DB0120E839E540E650EF12
:1009C0000E948C0B2B013C01CF0164E670E00E9479
:1009D000140BFC01DB0120E032EC47E15CEB0E94F0
:1009E0008C0B4B015C01DF01B695A795B695A795D9
:1009F00020E83FE146E857E00E948C0B6B017C0148
:100A0000DF01A370BB2720E833E341EE51E00E94F1
:100A10008C0B6C8B7D8B8E8B9F8BF1018E2F8219B3
:100A20009D85891720F48191080F111DF7CFA989A1
:100A30002A2F30E0A0E1BEE00E947D0B6D877E870B
:100A40008F87988BBA892B2F30E0ACE3B0E00E94FF
:100A50007D0B2D853E854F855889260F371F481FF2
:100A6000591FDA01C9013B89830F911DA11DB11DD9
:100A7000480E591E6A1E7B1E840C951CA61CB71CB2
:100A8000C80CD91CEA1CFB1C8C899D89AE89BF89C6
:100A9000C80ED91EEA1EFB1ED80120E831E541E050
:100AA00050E00E948C0BDC01CB018C0D9D1DAE1D16
:100AB000BF1D8093F1029093F202A093F302B093D2
:100AC000F40267960FB6F894DEBF0FBECDBFDF917C
:100AD000CF911F910F91FF90EF90DF90CF90BF903B
:100AE000AF909F908F907F906F905F904F903F90CE
:100AF0002F900C948607EF92FF920F931F93CF9342
:100B0000DF93CDB7DEB768970FB6F894DEBF0FBEA0
:100B1000CDBF7B012CE0EDE5F1E0DE011D960190FB
:100B20000D922A95E1F78E010F5F1F4F2CE0F8011F
:100B300011922A95E9F70E94FC038A83DE011D9633
:100B400080E0F701408151819D91F80121918F0151
:100B500030E0290F311D4217530740F0421B530B61
:100B6000F701518340838F5F8C3059F768960FB639
:100B7000F894DEBF0FBECDBFDF91CF911F910F91D3
:100B8000FF90EF9008954F925F926F927F928F92B5
:100B90009F92AF92BF92CF92DF92EF92FF92CF934C
:100BA000DF9300D0CDB7DEB72B013C0181E090E0B0
:100BB000A0E0B0E020E8421629E5520620E66206F1
:100BC00020EF720618F480E090E0DC0120E931E0CB
:100BD000829F5001839FB00C929FB00C112480E340
:100BE000A81A88EFB80AC12CD12C7601C39420E84A
:100BF000421629E5520620E6620620EF720618F436
:100C0000C12CD12C7601A701960160E879E580E638
:100C100090EF0E94040B73016201C61AD70AE80A1A
:100C2000F90A81E090E0A0E0B0E0C11422ECD20625
:100C300027E1E2062CEBF20618F480E090E0DC01FC
:100C400044E6489F9001499F300D1124A20EB31E27
:100C500021E030E040E050E0C11482ECD80687E1AA
:100C6000E8068CEBF80618F420E030E0A90160E01B
:100C700072EC87E19CEB0E94040BA7019601261BF6
:100C8000370B480B590BCA01B90120E83FE146E890
:100C900057E00E943C0B220F331F220F331FA20E7E
:100CA000B31E20E833E341EE51E00E943C0B750196
:100CB000E20EF31E20E831E541E050E00E943C0BDB
:100CC0004B015C013A832983BE016F5F7F4FC701EF
:100CD0000E947B05D82EC501B40120E13EE040E032
:100CE00050E00E943C0B29013A014B015C016DEA86
:100CF00071E089E491E00E94DA066D2D70E06F5F8B
:100D00007F4F42E089E491E00E94E40669817A81A4
:100D10006F5F7F4F42E08CE491E00E94E40644E084
:100D2000B7018FE491E00E94E40642E0B20184E55D
:100D300091E00E94E406C501B4012CE330E040E0FC
:100D400050E00E943C0B49015A016B017C0142E0DA
:100D5000B40187E591E00E94E40642E0B6018AE52D
:100D600091E00E94E40689E491E00F900F90DF91FA
:100D7000CF91FF90EF90DF90CF90BF90AF909F907A
:100D80008F907F906F905F904F9008950F931F9377
:100D90000E947A070091F1021091F2022091F30271
:100DA0003091F402600F711F821F931F1F910F91EA
:100DB0000C94C305FC01DB018D91BD01882311F06A
:100DC0008193F9CF108208959F92AF92BF92CF92F4
:100DD000DF92EF92FF920F931F93CF93DF9300D098
:100DE00000D01F92CDB7DEB7FC016B019E012F5FD3
:100DF0003F4F8E010A5F1F4FEE24E394F12C9AE0DF
:100E0000992E9E9C50019F9CB00C1124C601B501E7
:100E10000E94140BB7010E94140BD9016D939D0120
:100E2000C61AD10867FDD3947501A017B10749F719
:100E300060E070E084E090E050E0D8012E918D01F8
:100E4000211105C06115710511F4009741F4841753
:100E500095072CF4205D219361E070E004C08417B5
:100E600095070CF43196019740F70F900F900F9073
:100E70000F900F90DF91CF911F910F91FF90EF9006
:100E8000DF90CF90BF90AF909F9008951F920F92E8
:100E90000FB60F9211248F939F93AF93BF938091BE
:100EA000500290915102A0915202B09153020196CA
:100EB000A11DB11D8093500290935102A093520244
:100EC000B0935302BF91AF919F918F910F900FBE3E
:100ED0000F901F90189583E294EF90938900809370
:100EE0008800109280008CE08093810082E08093E3
:100EF0006F0008952FB7F8946091500270915102DD
:100F000080915202909153022FBF08958FB7F894A9
:100F100010925002109251021092520210925302FB
:100F20008FBF08950E94BC09789408950C94540AC8
:100F3000CF93DF93EC018991882319F00E94540A22
:100F4000FACFDF91CF910895CF93C82F90E024E09E
:100F5000959587952A95E1F78A3010F4805D01C058
:100F6000895C0E94540A8C2F8F708A3010F0895C43
:100F700001C0805DCF910C94540ACF93C82F892F64
:100F80000E94A4078C2FCF910C94A4072F923F921C
:100F90004F925F926F927F928F929F92AF92BF9289
:100FA000CF92DF92EF92FF920F931F93CF93DF9335
:100FB000CDB7DEB763970FB6F894DEBF0FBECDBFD7
:100FC0006B017C0197FF0DC0F094E094D094C09425
:100FD000C11CD11CE11CF11C81E090E09B8B8A8B31
:100FE00002C01B8A1A8AFE0131965F018E01055FDD
:100FF0001F4FF98BE88B66246394712C812C912C04
:10100000AAE0B0E09301A4010E948C0B1B012C010B
:10101000C701B6019101A2010E945E0B9301A401D8
:101020000E945E0BE889F9892193F98BE88B822F66
:10103000220F990BAA0BBB0BC81AD90AEA0AFB0AA2
:10104000310142010E171F07D9F68A899B89892B26
:1010500011F08DE201C080E20E94540A20E030E0ED
:10106000F80182918F01811106C02115310519F413
:10107000EA15FB0529F4805D0E94540A21E030E066
:101080000A151B0569F763960FB6F894DEBF0FBE0D
:10109000CDBFDF91CF911F910F91FF90EF90DF9027
:1010A000CF90BF90AF909F908F907F906F905F9008
:1010B0004F903F902F9008952F923F924F925F92C2
:1010C0006F927F928F929F92AF92BF92CF92DF9258
:1010D000EF92FF920F931F93CF93DF93CDB7DEB7BD
:1010E00064970FB6F894DEBF0FBECDBF8C016115BB
:1010F000710509F492C0812C912C5401CB01A0E020
:10110000B0E0898B9A8BAB8BBC8BDE0111961D01F5
:1011100089899A89AB89BC8988169906AA06BB0673
:1011200008F07BC0812F0E94A407802F807F0E943F
:10113000A40780E20E94960761017801412C512C9E
:10114000320141E0B601C7010E94BE00BFEFEB1AB9
:10115000FB0AEFEF4E1A5E0A6E0A7E0AFFEF8F1A45
:101160009F0AAF0ABF0A89899A89AB89BC89881608
:101170009906AA06BB0650F068019FE0C922DD244B
:1011800000E010E032016C0C7D1C09C0AFEFCA1A00
:10119000DA0AC7018F709927892B99F6EDCF0C15C4
:1011A0001D0518F00615170528F081EC91E00E9446
:1011B00098070BC0F801EC19FD09E20DF31D8081C1
:1011C0000E94A40780E20E9496070F5F1F4F003124
:1011D000110529F700E010E0C016D10631F080E2D9
:1011E0000E9496070F5F1F4FF7CF8101C801821938
:1011F00093098415950558F4F80181918F0190EEBB
:10120000980F903608F08EE20E949607EFCF85EC9B
:1012100091E00E94980787017BCF64960FB6F894FF
:10122000DEBF0FBECDBFDF91CF911F910F91FF9019
:10123000EF90DF90CF90BF90AF909F908F907F9076
:101240006F905F904F903F902F9008951F920F9254
:101250000FB60F9211242F933F938F939F9320915A
:101260005A0230915B0280915602909157022817E2
:10127000390749F080915A0290915B020196909350
:101280005B0280935A0220915C0230915D02809152
:101290005802909159022817390749F080915C0251
:1012A00090915D02019690935D0280935C029F9104
:1012B0008F913F912F910F900FBE0F901F90189517
:1012C00089EF87BD82E084BD93E095BD80936E0079
:1012D00008958230910550F4F894880F991FFC010D
:1012E000E65AFD4F808191817894089580E090E0E6
:1012F00008958230910598F4880F991FFC01E65AF1
:10130000FD4F20813181FC01EA5AFD4F81E090E0E0
:10131000408151814217530721F080E0089580E019
:1013200090E008950F931F93CF93DF93EC018B010F
:101330008091540290915502892B41F40E946009DA
:1013400081E090E09093550280935402C230D10521
:1013500070F48FB7F894CC0FDD1FFE01EA5AFD4FF1
:1013600011830083C65ADD4F198218828FBFDF9127
:10137000CF911F910F9108951092C00087E690E0E1
:101380009093C5008093C400E1ECF0E088E1808395
:1013900086E08093C2008081806A808308951F92D6
:1013A0000F920FB60F9211242F938F939F93EF9369
:1013B000FF93809160022091610290E0821B91096D
:1013C00001978F739927892B79F0E0916102F0E002
:1013D0008091C600EB50FD4F8083809161028F5F4A
:1013E0008F738093610202C08091C600FF91EF91DC
:1013F0009F918F912F910F900FBE0F901F90189576
:101400001F920F920FB60F9211242F938F939F93D9
:10141000EF93FF9380915F0220915E0290E0821B28
:1014200091098F739927892B79F0E0915E02F0E0A2
:10143000EB5CFC4F80818093C60080915E028F5FE1
:101440008F7380935E0205C08091C1008F7D809371
:10145000C100FF91EF919F918F912F910F900FBE3F
:101460000F901F9018958091610290916002891BE6
:101470008F730895809161022091600290E0821B39
:1014800091098F739927892B69F0E0916002F0E050
:10149000EB50FD4F8081909160029F5F9F7390930E
:1014A0006002089580E008950FB607FE0EC02091F7
:1014B0005E0290915F0230E0291B31092150310911
:1014C0002F733327232B99F30DC020915E02909147
:1014D0005F0230E0291B3109215031092F73332776
:1014E000232B61F0E0915F02F0E0EB5CFC4F808326
:1014F00080915F028F5F8F7380935F028091C10044
:1015000080628093C10008951F93CF93DF93EC0115
:1015100080E011E0180FFE01E80FF11D80818823A3
:1015200021F00E94540A812FF4CFDF91CF911F91B7
:1015300008951F93CF93DF93EC0180E011E0180F23
:10154000FE01E80FF11D8491882321F00E94540AC6
:10155000812FF4CFDF91CF911F9108950E949207C0
:101560000E9484000E94EF010E9421020E94E70372
:101570000E946A0189E691E00E94830181E791E07F
:101580000E94160485E891E00E9498078EEB92E095
:101590000E9498078AEA91E00E9498078AEC92E0FC
:1015A0000E9498078AEA91E00E9498078AEB92E0ED
:1015B0000E9498078AEA91E00E94980781E0809350
:1015C00073020E946B000E946D038AEA0E941C0352
:1015D0008BEB0E941C038CEC0E941C03C0E00E9459
:1015E00095010E94E6020E9453000E94D300892BBD
:1015F000B1F7CC2311F0C1E0F2CF60E071E080E000
:1016000090E00E945C08F7CFDB018F939F930E94CC
:101610008C0BBF91AF91A29F800D911DA39F900D48
:10162000B29F900D11240895AA1BBB1B51E107C066
:10163000AA1FBB1FA617B70710F0A61BB70B881F62
:10164000991F5A95A9F780959095BC01CD010895F1
:1016500097FB072E16F4009407D077FD09D00E945F
:10166000140B07FC05D03EF4909581959F4F08958B
:10167000709561957F4F0895A1E21A2EAA1BBB1B9E
:10168000FD010DC0AA1FBB1FEE1FFF1FA217B3074E
:10169000E407F50720F0A21BB30BE40BF50B661F64
:1016A000771F881F991F1A9469F760957095809528
:1016B00090959B01AC01BD01CF010895052E97FBCC
:1016C0001EF400940E94750B57FD07D00E943C0B3E
:1016D00007FC03D04EF40C94750B50954095309553
:1016E00021953F4F4F4F5F4F08959095809570958E
:1016F00061957F4F8F4F9F4F0895A29FB001B39F79
:10170000C001A39F700D811D1124911DB29F700D0A
:10171000811D1124911D08950E947D0BA59F900DA0
:10172000B49F900DA49F800D911D11240895F894ED
:02173000FFCFE9
:10173200030B443100802500002D00040B443000CF
:10174200802500002D0002060024F400010C6174C3
:081752006D6567613332380058
:10175A0041535500FF03FE0301000000C0A80164C5
:10176A000000534552004E617468616E69656C00F1
:10177A000000427279616E74000000000000424C61
:10178A0033000000000000000000000000004E418D
:10179A0054425259555341000030302F30302F30C7
:1017AA003030302030303A30303A3030001F1C1F91
:1017BA001E1F1E1F1F1E1F1E1F2D2D2D202D2E2DDD
:1017CA000030312F30312F323031392030303A3039
:1017DA00303A303000534552203438362050726F38
:1017EA006A6563742032202D204E617468616E69C7
:1017FA00656C20427279616E74200A0D0030302FB8
:10180A0030302F303030302030303A30303A3030CB
:08181A0000202020000D0A004F
:00000001FF
