:100000000C9434000C9451000C9451000C94510049
:100010000C9451000C9451000C9451000C9451001C
:100020000C9451000C9451000C9451000C94A401B8
:100030000C9451000C9451000C94B6000C94510097
:100040000C9451000C9451000C9411060C9442062F
:100050000C9451000C9451000C9451000C945100DC
:100060000C9451000C94510011241FBECFEFD8E026
:10007000DEBFCDBF11E0A0E0B1E0E4EDFFE002C0E3
:1000800005900D92AE37B107D9F722E0AEE7B1E0A7
:1000900001C01D92A831B207E1F70E94F0060C944E
:1000A000D4070C94000084B5806C84BD84B5826054
:1000B00084BD85B5836085BD84B5896F84BDEEE65A
:1000C000F0E080818260808381E080937E01E3E8BC
:1000D000F1E01182108213821282E7E8F1E01182CE
:1000E000108281E090E09383828308952FB7F89483
:1000F000FC01EE0FFF1FE957FE4F808191812FBF5A
:1001000008950F931F93CF93DF93EC018B018091A0
:100110007E01811102C00E9453002FB7F894CE01D6
:10012000880F991FFC01ED57FE4F11830083FC01DE
:10013000E957FE4F118210822FBFDF91CF911F919F
:100140000F910895880F991FFC01E957FE4F2081F8
:100150003181FC01ED57FE4F81E090E040815181FB
:100160004217530711F080E090E008951F920F921C
:100170000FB60F9211242F933F934F935F936F937A
:100180007F938F939F93AF93BF93EF93FF9380E001
:1001900090E00E94A200892B49F480918701909100
:1001A00088010196909388018093870181E090E017
:1001B0000E94A200892B49F48091890190918A01C3
:1001C000019690938A0180938901FF91EF91BF91ED
:1001D000AF919F918F917F916F915F914F913F91DF
:1001E0002F910F900FBE0F901F901895E0918E01E8
:1001F000F0918F0180918C0190918D01E80FF91F92
:1002000080818D3249F08E3279F08032A9F40E94DB
:10021000CE0168EE73E017C082E380938B010E94E9
:10022000CC016EEE72E00FC082E380938B010E94DE
:10023000CC016AEF70E007C082E380938B010E94DB
:10024000CE0160E070E080E090E00C94810064E614
:1002500070E080E090E00E9481000E94CE0181E386
:1002600080938B01089590938F0180938E0110925B
:100270008D0110928C0181E380938B0160E070E02E
:1002800080E090E00E9481000C94CE0180E090E03C
:100290000E94A200892B11F180918B01813329F0FA
:1002A000823329F40E94270102C00E94F600809147
:1002B0008C0190918D010196E0918E01F0918F015A
:1002C000E80FF91F2081222329F090938D0180935C
:1002D0008C01089510928D0110928C010895E0E830
:1002E000F0E08081806C8083E1E8F0E080818860CC
:1002F0008083808185608083EFE6F0E0808182608A
:100300008083E9E8F0E080818D638083E8E8F0E0B5
:1003100080818860808308952FB7F8946091900160
:100320007091910180919201909193012FBF089556
:100330008FB7F8941092900110929101109292014F
:10034000109293018FBF08951F920F920FB60F92D4
:1003500011248F939F93AF93BF93809190019091BD
:100360009101A0919201B09193010196A11DB11D3F
:100370008093900190939101A0939201B093930187
:10038000BF91AF919F918F910F900FBE0F901F90D3
:100390001895219A29980895299A089529980895D9
:1003A00085B18695817090E008950C946F010F934C
:1003B0001F930E948C01009194011091950120914E
:1003C000960130919701600F711F821F931F1F913B
:1003D0000F9108959C0160E971E00E946507892BE7
:1003E00079F0C90183709927892B61F4C90164E60A
:1003F00070E00E9465079C0181E0232B21F402C07C
:1004000081E0089580E008952F923F924F925F928D
:100410006F927F928F929F92AF92BF92CF92DF9214
:10042000EF92FF920F931F93CF93DF93CDB7DEB779
:1004300067970FB6F894DEBF0FBECDBF2CE0E4E1A6
:10044000F1E0AE014F5F5F4F1A01DA0101900D92AA
:100450002A95E1F7DC012C91220F2056322F330F21
:10046000330F230F11963C9111973153230F2D8792
:1004700013962C911397022E000C330B2053310945
:100480006AE0629FA001639F500D11241496CC90E6
:100490000C2C000CDD08B0E3CB1AD108C40ED51E1D
:1004A000860101501109FC012681022E000C330B3C
:1004B00020533109E8EEF3E02E9FA0012F9F500D4D
:1004C0003E9F500D1124DC0117962C911797022E98
:1004D000000C330B2053310974E6729F7001739F37
:1004E000F00C1124E40EF51E18964C911897042E6A
:1004F000000C550B40535109649F9001659F300DCE
:100500001124E20EF31E19962C911997F701E20FB0
:10051000F11D27FDFA95AF0158507A011B962C91D9
:100520001B97220F2056322F330F330F230F1C96A9
:100530003C911C973053230F298B1E962C911E97AC
:10054000220F2056322F330F330F230F1F963C916B
:100550001F973053230F2A8B51962C915197220FBE
:100560002056322F330F330F230F52968C91805326
:10057000280F2B8BCA010E94EA01882321F05D8598
:10058000523008F08601C70160E971E00E946507FA
:10059000FC01DB0120E839E540E650EF0E94C90785
:1005A0002B013C01CF0164E670E00E946507FC016D
:1005B000DB0120E032EC47E15CEB0E94C9074B0114
:1005C0005C01DF01B695A795B695A79520E83FE1B8
:1005D00046E857E00E94C9076B017C01DF01A37068
:1005E000BB2720E833E341EE51E00E94C9076C8B42
:1005F0007D8B8E8B9F8BF1018E2F82199D858917A4
:1006000020F48191080F111DF7CFA9892A2F30E01E
:10061000A0E1BEE00E94BA076D877E878F87988B26
:10062000BA892B2F30E0ACE3B0E00E94BA072D85E9
:100630003E854F855889260F371F481F591FDA01FD
:10064000C9013B89830F911DA11DB11D480E591E83
:100650006A1E7B1E840C951CA61CB71CC80CD91CDA
:10066000EA1CFB1C8C899D89AE89BF89C80ED91EE6
:10067000EA1EFB1ED80120E831E541E050E00E946F
:10068000C907DC01CB018C0D9D1DAE1DBF1D8093E4
:10069000940190939501A0939601B093970167966A
:1006A0000FB6F894DEBF0FBECDBFDF91CF911F9183
:1006B0000F91FF90EF90DF90CF90BF90AF909F9001
:1006C0008F907F906F905F904F903F902F900C9401
:1006D0009801EF92FF920F931F93CF93DF93CDB7C3
:1006E000DEB768970FB6F894DEBF0FBECDBF7B01B3
:1006F0002CE0E4E1F1E0DE011D9601900D922A95D7
:10070000E1F78E010F5F1F4F2CE0F80111922A953F
:10071000E9F70E94EA018A83DE011D9680E0F70175
:10072000408151819D91F80121918F0130E0290F85
:10073000311D4217530740F0421B530BF701518301
:1007400040838F5F8C3059F768960FB6F894DEBF00
:100750000FBECDBFDF91CF911F910F91FF90EF9012
:1007600008954F925F926F927F928F929F92AF9275
:10077000BF92CF92DF92EF92FF92CF93DF9300D0A0
:10078000CDB7DEB72B013C0181E090E0A0E0B0E006
:1007900020E8421629E5520620E6620620EF72069E
:1007A00018F480E090E0DC0120E931E0829F500104
:1007B000839FB00C929FB00C112480E3A81A88EF9D
:1007C000B80AC12CD12C7601C39420E8421629E541
:1007D000520620E6620620EF720618F4C12CD12CD6
:1007E0007601A701960160E879E580E690EF0E9426
:1007F000550773016201C61AD70AE80AF90A81E0AF
:1008000090E0A0E0B0E0C11422ECD20627E1E206BD
:100810002CEBF20618F480E090E0DC0144E6489FFF
:100820009001499F300D1124A20EB31E21E030E04B
:1008300040E050E0C11482ECD80687E1E8068CEB7A
:10084000F80618F420E030E0A90160E072EC87E1DE
:100850009CEB0E945507A7019601261B370B480BFE
:10086000590BCA01B90120E83FE146E857E00E9470
:100870007907220F331F220F331FA20EB31E20E869
:1008800033E341EE51E00E9479077501E20EF31E59
:1008900020E831E541E050E00E9479074B015C011E
:1008A0003A832983BE016F5F7F4FC7010E946903AE
:1008B000D82EC501B40120E13EE040E050E00E94A6
:1008C000790729013A014B015C0169E671E080E09A
:1008D00091E00E94C8046D2D70E06F5F7F4F42E091
:1008E00080E091E00E94D20469817A816F5F7F4F3E
:1008F00042E083E091E00E94D20444E0B70186E048
:1009000091E00E94D20442E0B2018BE091E00E94AB
:10091000D204C501B4012CE330E040E050E00E9475
:10092000790749015A016B017C0142E0B4018EE074
:1009300091E00E94D20442E0B60181E191E00E9480
:10094000D20480E091E00F900F90DF91CF91FF9063
:10095000EF90DF90CF90BF90AF909F908F907F905F
:100960006F905F904F9008950F931F930E948C019A
:100970000091940110919501209196013091970179
:10098000600F711F821F931F1F910F910C94B10371
:10099000FC01DB018D91BD01882311F08193F9CF1A
:1009A000108208959F92AF92BF92CF92DF92EF9202
:1009B000FF920F931F93CF93DF9300D000D01F922D
:1009C000CDB7DEB7FC016B019E012F5F3F4F8E015B
:1009D0000A5F1F4FEE24E394F12C9AE0992E9E9C1F
:1009E00050019F9CB00C1124C601B5010E946507FF
:1009F000B7010E946507D9016D939D01C61AD10800
:100A000067FDD3947501A017B10749F760E070E066
:100A100084E090E050E0D8012E918D01211105C0B5
:100A20006115710511F4009741F4841795072CF4B2
:100A3000205D219361E070E004C0841795070CF4F9
:100A40003196019740F70F900F900F900F900F90F5
:100A5000DF91CF911F910F91FF90EF90DF90CF909A
:100A6000BF90AF909F9008950E94FE0578940895DE
:100A70000C949606CF93DF93EC018991882319F0AB
:100A80000E949606FACFDF91CF910895CF93C82F99
:100A900090E024E0959587952A95E1F78A3010F447
:100AA000805D01C0895C0E9496068C2F8F708A3011
:100AB00010F0895C01C0805DCF910C949606CF93B5
:100AC000C82F892F0E9446058C2FCF910C94460584
:100AD0002F923F924F925F926F927F928F929F924E
:100AE000AF92BF92CF92DF92EF92FF920F931F933C
:100AF000CF93DF93CDB7DEB763970FB6F894DEBF21
:100B00000FBECDBF6B017C0197FF0DC0F094E09448
:100B1000D094C094C11CD11CE11CF11C81E090E078
:100B20009B8B8A8B02C01B8A1A8AFE0131965F0159
:100B30008E01055F1F4FF98BE88B66246394712C3F
:100B4000812C912CAAE0B0E09301A4010E94C90776
:100B50001B012C01C701B6019101A2010E949B0754
:100B60009301A4010E949B07E889F9892193F98BDD
:100B7000E88B822F220F990BAA0BBB0BC81AD90A3C
:100B8000EA0AFB0A310142010E171F07D9F68A89CA
:100B90009B89892B11F08DE201C080E20E949606AC
:100BA00020E030E0F80182918F01811106C021150B
:100BB000310519F4EA15FB0529F4805D0E949606BB
:100BC00021E030E00A151B0569F763960FB6F8942B
:100BD000DEBF0FBECDBFDF91CF911F910F91FF9070
:100BE000EF90DF90CF90BF90AF909F908F907F90CD
:100BF0006F905F904F903F902F9008951092C0009B
:100C000087E690E09093C5008093C400E1ECF0E0AB
:100C100088E1808386E08093C2008081806A80833F
:100C200008951F920F920FB60F9211242F938F9356
:100C30009F93EF93FF93809181012091820190E037
:100C4000821B910901978F739927892B79F0E09185
:100C50008201F0E08091C600E856FE4F80838091CB
:100C600082018F5F8F738093820102C08091C600E2
:100C7000FF91EF919F918F912F910F900FBE0F9049
:100C80001F9018951F920F920FB60F9211242F9359
:100C90008F939F93EF93FF938091800120917F0129
:100CA00090E0821B91098F739927892B79F0E0914D
:100CB0007F01F0E0E852FE4F80818093C600809172
:100CC0007F018F5F8F7380937F0105C08091C1008A
:100CD0008F7D8093C100FF91EF919F918F912F9114
:100CE0000F900FBE0F901F901895809182019091E8
:100CF0008101891B8F730895809182012091810168
:100D000090E0821B91098F739927892B69F0E091FC
:100D10008101F0E0E856FE4F8081909181019F5F54
:100D20009F7390938101089580E008950FB607FEA8
:100D30000EC020917F019091800130E0291B310984
:100D4000215031092F733327232B99F30DC02091A4
:100D50007F019091800130E0291B31092150310938
:100D60002F733327232B61F0E0918001F0E0E852EC
:100D7000FE4F8083809180018F5F8F73809380010D
:100D80008091C10080628093C10008951F93CF932A
:100D9000DF93EC0180E011E0180FFE01E80FF11D78
:100DA0008081882321F00E949606812FF4CFDF9165
:100DB000CF911F9108951F93CF93DF93EC0180E0B3
:100DC00011E0180FFE01E80FF11D8491882321F036
:100DD0000E949606812FF4CFDF91CF911F91089545
:100DE0000E9434050E94C9010E94D50160E177E2AA
:100DF00081E090E00E948100812C912C540181E0DF
:100E000090E00E94A200892B31F48FEF881A980A93
:100E1000A80AB80AF4CF60E177E281E090E00E948E
:100E20008100C12CD12C760181E090E00E94A200CB
:100E3000892B41F40E9446018FEFC81AD80AE80AAC
:100E4000F80AF2CFC501B4010E94680580E291E082
:100E50000E943A05C701B6010E94680582E291E04E
:100E60000E943A0585E291E00E943A058DE491E006
:100E70000E94040281E691E00E9433010E94460133
:100E800064EF71E081E090E00E94810081E090E0F9
:100E90000E94A200892BD1F30E94B4040E943A055B
:100EA0008BE491E00E943A05E9CFDB018F939F9399
:100EB0000E94C907BF91AF91A29F800D911DA39F72
:100EC000900DB29F900D11240895AA1BBB1B51E1F8
:100ED00007C0AA1FBB1FA617B70710F0A61BB70BAA
:100EE000881F991F5A95A9F780959095BC01CD014F
:100EF0000895A1E21A2EAA1BBB1BFD010DC0AA1F5B
:100F0000BB1FEE1FFF1FA217B307E407F50720F072
:100F1000A21BB30BE40BF50B661F771F881F991FED
:100F20001A9469F760957095809590959B01AC0136
:100F3000BD01CF010895052E97FB1EF400940E9479
:100F4000B20757FD07D00E94790707FC03D04EF483
:100F50000C94B20750954095309521953F4F4F4FD7
:100F60005F4F089590958095709561957F4F8F4F55
:100F70009F4F0895A29FB001B39FC001A39F700D22
:100F8000811D1124911DB29F700D811D1124911D91
:100F900008950E94BA07A59F900DB49F900DA49F3D
:0C0FA000800D911D11240895F894FFCFDE
:100FAC00030B443100802500002D00040B4430005D
:100FBC00802500002D0002060024F400010C617451
:080FCC006D65676133323800E6
:100FD40030302F30302F303030302030303A303015
:100FE4003A3030001F1C1F1E1F1E1F1F1E1F1E1FF6
:100FF40020000D0A00534552203438362050726FB9
:101004006A6563742031202D204E617468616E69B5
:10101400656C20427279616E74200A0D0030312FA4
:1010240030312F323031392030303A30303A3030AC
:10103400002D2D2D202D2E2D0030302F30302F302F
:0E1044003030302030303A30303A303000005A
:00000001FF
