:100000000C9434000C9451000C9451000C94510049
:100010000C9451000C9451000C9451000C9451001C
:100020000C9451000C9451000C9451000C94F90262
:100030000C9451000C9451000C9435010C94510017
:100040000C9451000C9451000C946F070C94A00771
:100050000C9451000C9451000C9451000C945100DC
:100060000C9451000C94510011241FBECFEFD8E026
:10007000DEBFCDBF11E0A0E0B1E0E6ECF1E102C0EF
:1000800005900D92AA37B107D9F722E0AAE7B1E0AF
:1000900001C01D92A431B207E1F70E943A020C940C
:1000A000CD080C940000CF93DF93CDB7DEB784E486
:1000B00090E024E430E0F9012081206CFC012083F1
:1000C00084E490E024E430E0F90120812260FC0126
:1000D000208385E490E025E430E0F901208123606D
:1000E000FC01208384E490E024E430E0F9012081E5
:1000F000296FFC0120838EE690E02EE630E0F901C6
:1001000020812260FC01208381E080937A0110929B
:10011000800110927F011092820110928101109251
:1001200084011092830181E090E090938601809396
:1001300085010000DF91CF910895CF93DF9300D028
:1001400000D000D0CDB7DEB79E838D838FE590E0E1
:10015000FC018081082E000C990B9A838983F89406
:100160008D819E81880F991F8D579E4FFC01808144
:1001700091819C838B838FE590E02981FC01208312
:100180008B819C8126960FB6F894DEBF0FBECDBF43
:10019000DF91CF910895CF93DF9300D000D000D0AE
:1001A000CDB7DEB79C838B837E836D8380917A018C
:1001B000882311F40E9453008FE590E0FC018081B8
:1001C000082E000C990B9A838983F8948B819C816B
:1001D000880F991F81589E4F2D813E81FC013183EC
:1001E00020838B819C81880F991F8D579E4FFC0126
:1001F000118210828FE590E02981FC0120830000AC
:1002000026960FB6F894DEBF0FBECDBFDF91CF911B
:100210000895CF93DF9300D000D0CDB7DEB79C8395
:100220008B831A8219828B819C81880F991F8D572D
:100230009E4FFC01208131818B819C81880F991F09
:1002400081589E4FFC01808191812817390721F444
:1002500081E090E09A83898389819A810F900F9041
:100260000F900F90DF91CF9108951F920F92009001
:100270005F000F9211242F933F934F935F936F93DF
:100280007F938F939F93AF93BF93EF93FF93CF93FE
:10029000DF93CDB7DEB780E090E00E940901892BA3
:1002A00049F4809183019091840101969093840197
:1002B0008093830181E090E00E940901892B49F439
:1002C000809185019091860101969093860180939B
:1002D00085010000DF91CF91FF91EF91BF91AF9128
:1002E0009F918F917F916F915F914F913F912F914E
:1002F0000F9000925F000F901F901895CF93DF939F
:1003000000D0CDB7DEB720918A0130918B0180916A
:10031000880190918901820F931FFC018081082E32
:10032000000C990B8D32910561F08E32910599F098
:100330008097D9F488EE93E09A8389830E942C03F6
:100340001CC082E3809387018EEE92E09A838983BA
:100350000E942A0312C082E3809387018AEF90E013
:100360009A8389830E942A0308C082E380938701CD
:100370001A8219820E942C03000089819A81BC0193
:1003800080E090E00E94CB0000000F900F90DF9182
:10039000CF910895CF93DF93CDB7DEB764E670E0D9
:1003A00080E090E00E94CB000E942C0381E38093C8
:1003B00087010000DF91CF910895CF93DF9300D0A4
:1003C000CDB7DEB79A83898389819A8190938B0117
:1003D00080938A01109289011092880181E38093B1
:1003E000870160E070E080E090E00E94CB000E9416
:1003F0002C0300000F900F90DF91CF910895CF93C1
:10040000DF93CDB7DEB780E090E00E940901892B31
:1004100069F180918701882F90E08133910519F06F
:10042000C29721F006C00E947E0103C00E94CA014B
:10043000000020918A0130918B0180918801909178
:1004400089010196820F931FFC018081882351F05E
:100450008091880190918901019690938901809300
:10046000880104C010928901109288010000DF9178
:10047000CF910895CF93DF93CDB7DEB70E94920658
:100480000E9427030E94330384E191E00E949806B2
:100490008CE391E00E94620380E591E00E94DD011F
:1004A0000E94FF0164EF71E081E090E00E94CB00C8
:1004B000000081E090E00E940901892BD1F30E94A5
:1004C00012060E94980688E591E00E949806E8CFFF
:1004D000CF93DF93CDB7DEB780E890E020E830E03F
:1004E000F9012081206CFC01208381E890E021E863
:1004F00030E0F90120812860FC01208381E890E050
:1005000021E830E0F90120812560FC0120838FE69D
:1005100090E02FE630E0F90120812260FC01208389
:1005200089E890E029E830E0F90120812D63FC01A1
:10053000208388E890E028E830E0F90120812860F5
:10054000FC0120830000DF91CF910895CF93DF93CA
:1005500000D000D000D0CDB7DEB78FE590E0FC0131
:100560008081082E000C990B9A838983F8948091DE
:100570008C0190918D01A0918E01B0918F018B83A0
:100580009C83AD83BE838FE590E02981FC012083AD
:100590008B819C81AD81BE81BC01CD0126960FB6B9
:1005A000F894DEBF0FBECDBFDF91CF910895CF93FA
:1005B000DF9300D0CDB7DEB78FE590E0FC018081FE
:1005C000082E000C990B9A838983F89410928C0161
:1005D00010928D0110928E0110928F018FE590E0A4
:1005E0002981FC01208300000F900F90DF91CF91B3
:1005F00008951F920F9200905F000F9211248F9325
:100600009F93AF93BF93CF93DF93CDB7DEB7809126
:100610008C0190918D01A0918E01B0918F01019676
:10062000A11DB11D80938C0190938D01A0938E012B
:10063000B0938F010000DF91CF91BF91AF919F9157
:100640008F910F9000925F000F901F901895219A44
:1006500029980895299A08952998089585B186952D
:10066000817090E008950C9468020F931F930E948C
:10067000A602009190011091910120919201309178
:100680009301600F711F821F931F1F910F91089597
:100690009C0160E971E00E945E08892B79F0C90134
:1006A00083709927892B61F4C90164E670E00E9488
:1006B0005E089C0181E0232B21F402C081E00895B3
:1006C00080E008952F923F924F925F926F927F92B7
:1006D0008F929F92AF92BF92CF92DF92EF92FF9252
:1006E0000F931F93CF93DF93CDB7DEB767970FB606
:1006F000F894DEBF0FBECDBF2CE0EAE5F1E0AE011D
:100700004F5F5F4F1A01DA0101900D922A95E1F7D0
:10071000DC012C91220F2056322F330F330F230F81
:1007200011963C9111973153230F2D8713962C91DD
:100730001397022E000C330B205331096AE0629F9D
:10074000A001639F500D11241496CC900C2C000C2A
:10075000DD08B0E3CB1AD108C40ED51E86010150C6
:100760001109FC012681022E000C330B20533109A4
:10077000E8EEF3E02E9FA0012F9F500D3E9F500DFD
:100780001124DC0117962C911797022E000C330BC5
:100790002053310974E6729F7001739FF00C11248D
:1007A000E40EF51E18964C911897042E000C550B6C
:1007B00040535109649F9001659F300D1124E20E52
:1007C000F31E19962C911997F701E20FF11D27FDE1
:1007D000FA95AF0158507A011B962C911B97220F66
:1007E0002056322F330F330F230F1C963C911C974A
:1007F0003053230F298B1E962C911E97220F2056C3
:10080000322F330F330F230F1F963C911F97305316
:10081000230F2A8B51962C915197220F2056322F5D
:10082000330F330F230F52968C918053280F2B8B4D
:10083000CA010E944803882321F05D85523008F0E8
:100840008601C70160E971E00E945E08FC01DB01DE
:1008500020E839E540E650EF0E94C2082B013C0138
:10086000CF0164E670E00E945E08FC01DB0120E03D
:1008700032EC47E15CEB0E94C2084B015C01DF01F6
:10088000B695A795B695A79520E83FE146E857E0CD
:100890000E94C2086B017C01DF01A370BB2720E826
:1008A00033E341EE51E00E94C2086C8B7D8B8E8B4E
:1008B0009F8BF1018E2F82199D85891720F48191DC
:1008C000080F111DF7CFA9892A2F30E0A0E1BEE063
:1008D0000E94B3086D877E878F87988BBA892B2FEC
:1008E00030E0ACE3B0E00E94B3082D853E854F8533
:1008F0005889260F371F481F591FDA01C9013B8944
:10090000830F911DA11DB11D480E591E6A1E7B1E2D
:10091000840C951CA61CB71CC80CD91CEA1CFB1C1B
:100920008C899D89AE89BF89C80ED91EEA1EFB1E1F
:10093000D80120E831E541E050E00E94C208DC0126
:10094000CB018C0D9D1DAE1DBF1D8093900190931A
:100950009101A0939201B093930167960FB6F8941A
:10096000DEBF0FBECDBFDF91CF911F910F91FF90E2
:10097000EF90DF90CF90BF90AF909F908F907F903F
:100980006F905F904F903F902F900C94D702EF9212
:10099000FF920F931F93CF93DF93CDB7DEB7689786
:1009A0000FB6F894DEBF0FBECDBF7B012CE0EAE5A9
:1009B000F1E0DE011D9601900D922A95E1F78E017E
:1009C0000F5F1F4F2CE0F80111922A95E9F70E9462
:1009D00048038A83DE011D9680E0F7014081518142
:1009E0009D91F80121918F0130E0290F311D4217AF
:1009F000530740F0421B530BF701518340838F5F35
:100A00008C3059F768960FB6F894DEBF0FBECDBF95
:100A1000DF91CF911F910F91FF90EF9008954F922A
:100A20005F926F927F928F929F92AF92BF92CF927E
:100A3000DF92EF92FF92CF93DF9300D0CDB7DEB776
:100A40002B013C0181E090E0A0E0B0E020E84216FC
:100A500029E5520620E6620620EF720618F480E0CF
:100A600090E0DC0120E931E0829F5001839FB00CCF
:100A7000929FB00C112480E3A81A88EFB80AC12C09
:100A8000D12C7601C39420E8421629E5520620E6CF
:100A9000620620EF720618F4C12CD12C7601A70152
:100AA000960160E879E580E690EF0E944E087301B8
:100AB0006201C61AD70AE80AF90A81E090E0A0E0CC
:100AC000B0E0C11422ECD20627E1E2062CEBF206DC
:100AD00018F480E090E0DC0144E6489F9001499FD3
:100AE000300D1124A20EB31E21E030E040E050E0B2
:100AF000C11482ECD80687E1E8068CEBF80618F4FE
:100B000020E030E0A90160E072EC87E19CEB0E94FC
:100B10004E08A7019601261B370B480B590BCA013B
:100B2000B90120E83FE146E857E00E947208220F31
:100B3000331F220F331FA20EB31E20E833E341EE12
:100B400051E00E9472087501E20EF31E20E831E5C3
:100B500041E050E00E9472084B015C013A83298316
:100B6000BE016F5F7F4FC7010E94C704D82EC50129
:100B7000B40120E13EE040E050E00E94720829010B
:100B80003A014B015C0166E671E080E091E00E9471
:100B900026066D2D70E06F5F7F4F42E080E091E0B0
:100BA0000E94300669817A816F5F7F4F42E083E067
:100BB00091E00E94300644E0B70186E091E00E9497
:100BC000300642E0B2018BE091E00E943006C501A0
:100BD000B4012CE330E040E050E00E94720849018B
:100BE0005A016B017C0142E0B4018EE091E00E9469
:100BF000300642E0B60181E191E00E94300680E0DB
:100C000091E00F900F90DF91CF91FF90EF90DF90E8
:100C1000CF90BF90AF909F908F907F906F905F909C
:100C20004F9008950F931F930E94A6020091900188
:100C3000109191012091920130919301600F711FE9
:100C4000821F931F1F910F910C940F05FC01DB0174
:100C50008D91BD01882311F08193F9CF1082089501
:100C60009F92AF92BF92CF92DF92EF92FF920F933B
:100C70001F93CF93DF9300D000D01F92CDB7DEB784
:100C8000FC016B019E012F5F3F4F8E010A5F1F4FDA
:100C9000EE24E394F12C9AE0992E9E9C50019F9CA7
:100CA000B00C1124C601B5010E945E08B7010E9474
:100CB0005E08D9016D939D01C61AD10867FDD394D2
:100CC0007501A017B10749F760E070E084E090E09B
:100CD00050E0D8012E918D01211105C061157105DB
:100CE00011F4009741F4841795072CF4205D2193AB
:100CF00061E070E004C0841795070CF43196019709
:100D000040F70F900F900F900F900F90DF91CF91C1
:100D10001F910F91FF90EF90DF90CF90BF90AF9019
:100D20009F9008950E945C07789408950C94F407AE
:100D3000CF93DF93EC018991882319F00E94F40787
:100D4000FACFDF91CF910895CF93C82F90E024E0A0
:100D5000959587952A95E1F78A3010F4805D01C05A
:100D6000895C0E94F4078C2F8F708A3010F0895CA8
:100D700001C0805DCF910C94F407CF93C82F892FC9
:100D80000E94A4068C2FCF910C94A4062F923F9220
:100D90004F925F926F927F928F929F92AF92BF928B
:100DA000CF92DF92EF92FF920F931F93CF93DF9337
:100DB000CDB7DEB763970FB6F894DEBF0FBECDBFD9
:100DC0006B017C0197FF0DC0F094E094D094C09427
:100DD000C11CD11CE11CF11C81E090E09B8B8A8B33
:100DE00002C01B8A1A8AFE0131965F018E01055FDF
:100DF0001F4FF98BE88B66246394712C812C912C06
:100E0000AAE0B0E09301A4010E94C2081B012C01DA
:100E1000C701B6019101A2010E9494089301A401A7
:100E20000E949408E889F9892193F98BE88B822F35
:100E3000220F990BAA0BBB0BC81AD90AEA0AFB0AA4
:100E4000310142010E171F07D9F68A899B89892B28
:100E500011F08DE201C080E20E94F40720E030E052
:100E6000F80182918F01811106C02115310519F415
:100E7000EA15FB0529F4805D0E94F40721E030E0CB
:100E80000A151B0569F763960FB6F894DEBF0FBE0F
:100E9000CDBFDF91CF911F910F91FF90EF90DF9029
:100EA000CF90BF90AF909F908F907F906F905F900A
:100EB0004F903F902F9008951092C00087E690E0E9
:100EC0009093C5008093C400E1ECF0E088E180835A
:100ED00086E08093C2008081806A808308951F929B
:100EE0000F920FB60F9211242F938F939F93EF932E
:100EF000FF9380917D0120917E0190E0821B9109FA
:100F000001978F739927892B79F0E0917E01F0E0AA
:100F10008091C600EC56FE4F808380917E018F5FEA
:100F20008F7380937E0102C08091C600FF91EF9184
:100F30009F918F912F910F900FBE0F901F9018953A
:100F40001F920F920FB60F9211242F938F939F939E
:100F5000EF93FF9380917C0120917B0190E0821BB5
:100F600091098F739927892B79F0E0917B01F0E04B
:100F7000EC52FE4F80818093C60080917B018F5F91
:100F80008F7380937B0105C08091C1008F7D80931A
:100F9000C100FF91EF919F918F912F910F900FBE04
:100FA0000F901F90189580917E0190917D01891B73
:100FB0008F73089580917E0120917D0190E0821BC6
:100FC00091098F739927892B69F0E0917D01F0E0F9
:100FD000EC56FE4F808190917D019F5F9F739093AF
:100FE0007D01089580E008950FB607FE0EC02091A0
:100FF0007B0190917C0130E0291B3109215031099E
:101000002F733327232B99F30DC020917B019091EF
:101010007C0130E0291B3109215031092F7333271E
:10102000232B61F0E0917C01F0E0EC52FE4F8083D5
:1010300080917C018F5F8F7380937C018091C100D0
:1010400080628093C10008951F93CF93DF93EC01DA
:1010500080E011E0180FFE01E80FF11D8081882368
:1010600021F00E94F407812FF4CFDF91CF911F91DF
:1010700008951F93CF93DF93EC0180E011E0180FE8
:10108000FE01E80FF11D8491882321F00E94F407EE
:10109000812FF4CFDF91CF911F910895DB018F93C2
:1010A0009F930E94C208BF91AF91A29F800D911D96
:1010B000A39F900DB29F900D11240895AA1BBB1BF6
:1010C00051E107C0AA1FBB1FA617B70710F0A61B48
:1010D000B70B881F991F5A95A9F780959095BC0169
:1010E000CD010895A1E21A2EAA1BBB1BFD010DC064
:1010F000AA1FBB1FEE1FFF1FA217B307E407F507C8
:1011000020F0A21BB30BE40BF50B661F771F881FA3
:10111000991F1A9469F760957095809590959B0139
:10112000AC01BD01CF010895052E97FB1EF400947C
:101130000E94AB0857FD07D00E94720807FC03D03D
:101140004EF40C94AB0850954095309521953F4F47
:101150004F4F5F4F089590958095709561957F4FA3
:101160008F4F9F4F0895A29FB001B39FC001A39FCF
:10117000700D811D1124911DB29F700D811D1124D0
:10118000911D08950E94B308A59F900DB49F900DE6
:0E119000A49F800D911D11240895F894FFCFA7
:10119E00030B443100802500002D00040B44300069
:1011AE00802500002D0002060024F400010C61745D
:0811BE006D65676133323800F2
:1011C60030302F30302F303030302030303A303021
:1011D6003A303000534552203438362050726F6A08
:1011E6006563742031202D204E616874616E6965D7
:1011F6006C20427279616E74200A0D0030312F30F6
:10120600312F323031392030303A30303A303000F8
:101216002D2D2D202D2E2D000D001F1C1F1E1F1ED7
:101226001F1F1E1F1E1F30302F30302F3030303022
:0A1236002030303A30303A303000FA
:00000001FF
