:100000000C9434000C9446000C9446000C9446006A
:100010000C9446000C9446000C9446000C94460048
:100020000C9446000C9446000C9446000C94460038
:100030000C9446000C9446000C9446000C94460028
:100040000C9446000C9446000C945F000C949000B5
:100050000C9446000C9446000C9446000C94460008
:100060000C9446000C94460011241FBECFEFD8E03C
:10007000DEBFCDBF21E0A0E0B1E001C01D92A438F9
:10008000B207E1F70E9441010C9446010C94000074
:1000900003D07894089598C01092C00083E390E054
:1000A0009093C5008093C400E1ECF0E088E1808388
:1000B00086E08093C2008081806A808308951F92C9
:1000C0000F920FB60F9211242F938F939F93EF935C
:1000D000FF93809102012091030190E0821B91091E
:1000E00001978F739927892B79F0E0910301F0E054
:1000F0008091C600EC5FFE4F8083809103018F5F8B
:100100008F738093030102C08091C600FF91EF912D
:100110009F918F912F910F900FBE0F901F90189568
:100120001F920F920FB60F9211242F938F939F93CC
:10013000EF93FF93809101012091000190E0821BD9
:1001400091098F739927892B79F0E0910001F0E0F4
:10015000EC5BFE4F80818093C600809100018F5F31
:100160008F738093000105C08091C1008F7D8093C3
:10017000C100FF91EF919F918F912F910F900FBE32
:100180000F901F9018958091030190910201891B97
:100190008F730895809103012091020190E0821BEA
:1001A00091098F739927892B69F0E0910201F0E0A2
:1001B000EC5FFE4F8081909102019F5F9F7390934F
:1001C0000201089580E008950FB607FE0EC0209149
:1001D00000019091010130E0291B310921503109C2
:1001E0002F733327232B99F30DC020910001909199
:1001F000010130E0291B3109215031092F733327C8
:10020000232B61F0E0910101F0E0EC5BFE4F808375
:10021000809101018F5F8F73809301018091C100F4
:1002200080628093C10008951F93CF93DF93C82FFE
:10023000D92F90E011E0190FEC2FFD2FE90FF11DE0
:100240008081882319F0C0DF912FF4CFDF91CF9107
:100250001F9108951F93CF93DF93C82FD92F90E05C
:1002600011E0190FEC2FFD2FE90FF11DC895802D1E
:10027000882319F0A9DF912FF3CFDF91CF911F9140
:1002800008950E94480080E090E00895F894FFCF20
:10029000030B443100004B00002D00040B443000E0
:1002A000004B00002D0002060024F400010C6174D4
:0802B0006D656761333238000F
:00000001FF
