:100000000C9434000C9451000C9451000C94510049
:100010000C9451000C9451000C9451000C9451001C
:100020000C9451000C9451000C9451000C9451000C
:100030000C9451000C9451000C9451000C945100FC
:100040000C9451000C9451000C94ED000C941E0182
:100050000C9451000C9451000C9451000C945100DC
:100060000C9451000C94510011241FBECFEFD8E026
:10007000DEBFCDBF11E0A0E0B1E0EAECF3E002C0EA
:1000800005900D92AE3AB107D9F722E0AEEAB1E0A1
:1000900001C01D92A233B207E1F70E94AB000C949D
:1000A000CF010C940000CF93DF9300D000D0CDB7E8
:1000B000DEB79C838B838B819C819A8389830BC061
:1000C00089819A81FC0180810E94D90089819A816D
:1000D00001969A83898389819A81FC018081882392
:1000E00079F700000F900F900F900F90DF91CF9154
:1000F0000895CF93DF9300D0CDB7DEB79A8389837D
:1001000089819A818230910589F0833091051CF4B0
:10011000019739F01AC08330910569F0049781F096
:1001200014C080E091E00E9453000FC088E091E08D
:100130000E9453000AC081E191E00E94530005C073
:100140008AE191E00E945300000000000F900F90A0
:10015000DF91CF910895CF93DF93CDB7DEB70E94A3
:10016000D60083E291E00E9453008FE391E00E9469
:10017000530080E691E00E94530082E791E00E94E4
:10018000530081E090E00E94790086E891E00E94AF
:10019000530082E090E00E94790089E991E00E949A
:1001A000530084E090E00E947900FFCF03D0789460
:1001B000089598C01092C00083E390E09093C5002A
:1001C0008093C400E1ECF0E088E1808386E08093D6
:1001D000C2008081806A808308951F920F920FB6BB
:1001E0000F9211242F938F939F93EF93FF938091FE
:1001F000B0012091B10190E0821B910901978F73AA
:100200009927892B79F0E091B101F0E08091C60047
:10021000EE54FE4F80838091B1018F5F8F73809386
:10022000B10102C08091C600FF91EF919F918F9123
:100230002F910F900FBE0F901F9018951F920F9245
:100240000FB60F9211242F938F939F93EF93FF93E9
:100250008091AF012091AE0190E0821B91098F73D4
:100260009927892B79F0E091AE01F0E0EE50FE4F36
:1002700080818093C6008091AE018F5F8F738093E1
:10028000AE0105C08091C1008F7D8093C100FF91B8
:10029000EF919F918F912F910F900FBE0F901F9014
:1002A00018958091B1019091B001891B8F730895C9
:1002B0008091B1012091B00190E0821B91098F7370
:1002C0009927892B69F0E091B001F0E0EE54FE4FE0
:1002D00080819091B0019F5F9F739093B0010895CA
:1002E00080E008950FB607FE0EC02091AE019091F8
:1002F000AF0130E0291B3109215031092F73332719
:10030000232B99F30DC02091AE019091AF0130E005
:10031000291B3109215031092F733327232B61F019
:10032000E091AF01F0E0EE50FE4F80838091AF018D
:100330008F5F8F738093AF018091C1008062809343
:10034000C10008951F93CF93DF93C82FD92F90E05A
:1003500011E0190FEC2FFD2FE90FF11D808188238B
:1003600019F0C0DF912FF4CFDF91CF911F91089545
:100370001F93CF93DF93C82FD92F90E011E0190F6F
:10038000EC2FFD2FE90FF11DC895802D882319F062
:10039000A9DF912FF3CFDF91CF911F910895F894AA
:0203A000FFCF8D
:1003A200030B443100004B00002D00040B443000CD
:1003B200004B00002D0002060024F400010C6174C1
:0803C2006D65676133323800FC
:1003CA003820626974730A00313620626974730ACC
:1003DA0000323420626974730A003332206269740D
:1003EA00730A0048656C6C6F20576F726C642066E4
:1003FA00726F6D2041746D6567613332380A00533C
:10040A004552343836202D2D20486F6D65776F722E
:10041A006B2041737369676E6D656E7420310A00D3
:10042A004E617468616E69656C20427279616E749E
:10043A000A00636861722073697A652028626974A8
:10044A007329203D2000696E742073697A6520281B
:10045A006269747329203D20006C6F6E672073698E
:0E046A007A6520286269747329203D20000005
:00000001FF
